:100000000C949D000C94BE000C94BE000C94BE0099
:100010000C94BE000C94BE000C94BE000C94BE0068
:100020000C94BE000C94BE000C94BE000C94BE0058
:100030000C94BE000C94BE000C94BE000C94BE0048
:100040000C94BE000C94AF010C94BE000C94BE0046
:100050000C94BE000C94BE000C94BE000C94BE0028
:100060000C94BE000C94BE000C94BE000C94BE0018
:100070000C94BE000C94BE000C94BE000C94BE0008
:100080000C94BE000C94BE000C94BE000C9496021E
:100090000C94BE000C94BE000C94BE000C94BE00E8
:1000A0000C94BE000C94BE000C94BE000C94BE00D8
:1000B0000C94BE000C94BE000C94BE000C94BE00C8
:1000C0000C94BE000C94BE000C94BE000C94BE00B8
:1000D0000C94BE000C94BE000C94BE000C94BE00A8
:1000E0000C94BE0042616420737461636B20736979
:1000F0007A6520636865636B0A00426164207374EB
:1001000061636B2070747220636865636B0A0042E0
:10011000616420656E74727920636865636B0A00A0
:100120004261642054434220636865636B0A005057
:100130006173730A00476F0A000011241FBECFEFDE
:10014000D1E2DEBFCDBF00E00CBF12E0A0E0B2E024
:10015000E0EAF3E200E00BBF02C007900D92AE3080
:10016000B107D9F71CE0AEE0B2E001C01D92A33F99
:10017000B107E1F70E9435020C94CE110C94A50151
:100180008F92AF92BF92CF92DF92EF92FF920F9336
:100190001F93CF93DF9380E090E060E142E751E06E
:1001A00000E010E020E030E07FE1E72E72E0F72E83
:1001B000B0E8AB2EB12CC12CD12C882483940E94A2
:1001C000C004893C19F4C0E0D0E00EC00F920F9239
:1001D00080E291E0EDB7FEB7928381830E94F50E35
:1001E000C1E0D0E00F900F908EE092E060E140E03F
:1001F00050E000E010E020E030E0AFE1EA2EA2E0C5
:10020000FA2EF0E8AF2EB12CC12CD12C8824839487
:100210000E94C004893C69F00F920F928FE091E038
:10022000EDB7FEB7928381830E94F50E21960F9061
:100230000F908EE092E060E142E751E000E010E0D4
:1002400020E030E0EE24FF24E0E8AE2EB12CC12CFB
:10025000D12C882483940E94C004893C69F00F92B9
:100260000F928AEF90E0EDB7FEB7928381830E94F0
:10027000F50E21960F900F908EE092E060E142E73C
:1002800051E000E010E020E030E07FE1E72E72E096
:10029000F72EAA24BB246501882483940E94C004FD
:1002A000893C69F00F920F9284EE90E0EDB7FEB7B3
:1002B000928381830E94F50E21960F900F909E01EC
:1002C000442737FD4095542FB901CA01DF91CF91E2
:1002D0001F910F91FF90EF90DF90CF90BF90AF9064
:1002E0008F90089564E670E080E090E00E94C4087A
:1002F000F9CFDC01FB018CED91E0808392931292A7
:1003000012921292129212921292129212921292CD
:1003100012921292129212921292129212921292BD
:1003200012921292129212923197ED93FC930895C9
:1003300081E792E0909389008093880082E0809327
:100340006F008CE08093810008951F920F920FB68A
:100350000F9211240F900FBE0F901F9018951F92AF
:100360000F920FB60F920BB60F9211242F933F935B
:100370004F935F936F937F938F939F93AF93BF93AD
:10038000EF93FF930E945A030E946F0881E00E943E
:10039000B304FF91EF91BF91AF919F918F917F91A6
:1003A0006F915F914F913F912F910F900BBE0F90E6
:1003B0000FBE0F901F9018950E946403FC01789463
:1003C000009759F0238134812115310531F0658181
:1003D000768187819085F901199508951F93CF93B0
:1003E000DF93182FEB018FE992E040E050E060E0EE
:1003F00070E00E945907882381F41A3021F48DE0BF
:10040000BE010E94EE018091C00085FFFCCF1093D9
:10041000C6008FE992E00E94DE0680E090E0DF9166
:10042000CF911F9108959B01AC0184E0220F331FEF
:10043000441F551F8A95D1F760E074E284EF90E085
:100440000E943C0E21502093C40088E18093C1009B
:100450008FE992E00E94FD07882319F420E030E044
:1004600002C02FEF3FEFC90108958F92AF92BF9264
:10047000CF92DF92EF92FF920F931F9380EC93E065
:100480009EBF8DBFCF9740E850E060E070E020E075
:100490000E942C058823E1F40E94980184EA92E0EE
:1004A00060E149E652E000E010E020E030E0E5EBFA
:1004B000EE2EE2E0FE2E7CECA72EB12CC12CD12C2E
:1004C000882483940E94C004882311F40E943A0473
:1004D000FFCF8FEF84B985B960E875E280E090E0E6
:1004E0000E94130280E092E09093F00C8093EF0C56
:1004F0000F920F9285E391E0EDB7FEB7928381836F
:100500000E94F50E8FE291E0EDB7FEB792838183F2
:100510000E94F50E0F900F9085B1805885B964E662
:1005200070E080E090E00E94C408F6CF1F920F9226
:100530000FB60F9211248F939F93AF93BF93809127
:10054000010490910204A0910304B0910404019667
:10055000A11DB11D8093010490930204A093030494
:10056000B09304041092950010929400BF91AF9143
:100570009F918F910F900FBE0F901F90189581E063
:1005800080937100E1E9F0E082E0808380818860FF
:1005900080830895EF92FF920F931F93E090940051
:1005A000F090950000E010E0609101047091020469
:1005B00080910304909104042FEF3FEF40E050E05E
:1005C0000E940A0EE60EF71E081F191F16950795C2
:1005D000F794E794B701C8011F910F91FF90EF9036
:1005E00008959093CD008093CC0088E18093C9005A
:1005F00086E08093CA000895982F8091C80085FFF7
:10060000FCCF9093CE0008952F923F924F925F922D
:100610006F927F928F929F92AF92BF92CF92DF9212
:10062000EF92FF920F931F93CF93DF930BB60F922E
:100630000CB60F920DB71EB7C82FD92F0883198398
:10064000C62FD72F088119810DBF1EBF0F900CB682
:100650000F900BB6DF91CF911F910F91FF90EF900C
:10066000DF90CF90BF90AF909F908F907F906F90D2
:100670005F904F903F902F900895C82FD92F0881F9
:1006800019810DBF1EBF0F900CB60F900BB6DF91F6
:10069000CF911F910F91FF90EF90DF90CF90BF907F
:1006A000AF909F908F907F906F905F904F903F9012
:1006B0002F90189580910A0490910B0401969093C5
:1006C0000B0480930A04089580910A0490910B040E
:1006D000892B19F020E030E004C02091080430910B
:1006E0000904C9010895FFCF0F931F93CF93DF93A0
:1006F0008C01DB010097A1F16115710589F1EC0115
:1007000048815981EA01FA01309731F092811296BD
:100710008C9112978917F0F4E417F50761F4E8015A
:10072000B983A8831A961C921E9219971C96FC9363
:10073000EE931B970AC01A96DC93CE9319971C96DA
:10074000FC93EE931B97BC87AB87309759F0B28729
:10075000A18708C0EF01838594859C01F901D4CF5E
:1007600089EC01C080E0DF91CF911F910F91089536
:10077000CF93DF93EC01009719F4E0E0F0E012C0B2
:10078000E881F981309771F0A385B485B983A88396
:10079000109721F01A961C921E92199712861186B4
:1007A00014861386CF01DF91CF910895CF93DF9305
:1007B000AC01DB010097A9F1EC01888199810097D8
:1007C00081F1EC01FC01EA17FB0719F51B96ED918D
:1007D000FC911C97A817B90741F4EA01F983E88353
:1007E000309769F0128611860AC0FC87EB871B964A
:1007F000ED91FC911C97309711F0D287C1871C9620
:100800001C921E921B971A961C921E921997BD015C
:100810000AC023853485EF012115310511F0F90156
:10082000D2CF60E070E0CB01DF91CF910895CF93FC
:10083000DF93EC010097C1F0A881B9811097B1F066
:1008400012968C911297681778F01B96ED91FC9197
:100850001C97F983E883309749F0128611861C961D
:100860001C921E921B9702C0A0E0B0E0CD01DF9168
:10087000CF91089581E08093070485E094E06FEFC5
:100880000E941704009731F09093090480930804A4
:100890000E943D0308950F931F93CF93DF93EC01C4
:1008A0008B0186179707E1F07093090460930804A1
:1008B0008091BF0C9091C00C892B19F4CE010E943D
:1008C000BC0CCE01B8010E94C90C8A818A3F21F07C
:1008D0001093C00C0093BF0CCE01B8010E9404031A
:1008E0001D86DF91CF911F910F910895FF920F9375
:1008F0001F93CF93DF93982F80910704882369F18A
:10090000FFB6F894C0910804D09109048D85813018
:1009100039F485E094E00E94B803BC01CE011AC00E
:100920006A81913049F06623B9F070E061507040FF
:100930008FEF6F3F780781F085E094E00E94170405
:100940008C01009749F085E094E0BE010E94740399
:10095000CE01B8010E944B04FFBEDF91CF911F91E1
:100960000F91FF90089520910A0430910B042150BB
:10097000304030930B0420930A040E9476040895BB
:100980008F929F92AF92BF92CF92DF92EF92FF929F
:100990000F931F93DF93CF93CDB7DEB74C01009732
:1009A00009F44CC04115510509F448C0E114F104A3
:1009B00009F444C0A114B104C104D10409F43EC037
:1009C000FC01158662831286118614861386108AAE
:1009D0001786548343830583168327833087B501A5
:1009E000615070406E0D7F1D0E9479011FB7F89411
:1009F00085E094E0B4010E947403882319F01FBFBE
:100A00008CEC1DC01FBF80910704813079F4809168
:100A10000A0490910B04892B49F480910804909169
:100A20000904892B19F080E00E947604C4010E9419
:100A3000110CC4010E94180D80E001C089ECCF9117
:100A4000DF911F910F91FF90EF90DF90CF90BF90BB
:100A5000AF909F908F9008958F92AF92BF92CF9258
:100A6000DF92EF92FF920F931F937C015A016B016B
:100A7000822E10920904109208041092060410921B
:100A80000504109207048CE094E06EEF43E753E016
:100A900000E010E020E030E00E94C0041F910F91C0
:100AA000FF90EF90DF90CF90BF90AF908F90089520
:100AB000FC01009711F489EC089562831182108281
:100AC00080E00895FC01009711F489EC0895628399
:100AD00080E008950F931F93CF93DF93FC0100975D
:100AE00011F419EC34C00FB7F89480819181892BEF
:100AF00029F1CF010E94B803EC0185E094E0BE012A
:100B00000E947403882319F00FBF1CEC20C01E86BE
:100B10008F859889009731F00E943008882311F062
:100B20001DEC03C0188A1F8610E00FBF0E946403EB
:100B3000892B69F080E00E94760409C082818F3F92
:100B400011F41BEC03C08F5F828310E00FBF812F75
:100B5000DF91CF911F910F910895DF92EF92FF9255
:100B60000F931F93CF93DF93009711F419EC32C0CA
:100B70007C0100E08AECD82E1FB7F894C7010E94D0
:100B8000B803EC010097D9F0DE8685E094E0BE0161
:100B90000E947403882319F01FBF1CEC12C08F85BC
:100BA0009889009749F00E943008882319F01FBFE8
:100BB0001DEC07C0188A1F861FBF01E0DDCF1FBFD5
:100BC00010E0013039F40E946403892B19F080E0B1
:100BD0000E947604812FDF91CF911F910F91FF909A
:100BE000EF90DF9008959F92AF92BF92CF92DF92E5
:100BF000EF92FF920F931F93DF93CF93CDB7DEB7A2
:100C00002E970FB6F894DEBF0FBECDBF7C015A0100
:100C10006B01009711F489EC59C09FB6F894FC0160
:100C20008281882309F04DC077FD48C00E9464038B
:100C30008C01009709F43FC0C701B8010E947403FA
:100C4000882319F09FBE8CEC41C081E0F8018587B4
:100C5000A114B104C104D10411F11A830983FC82E7
:100C6000EB8288E796E09E838D83CE01019698877C
:100C70008F83A986BA86CB86DC86CE010596908BBB
:100C800087870E940B08882371F0C701B8010E9472
:100C9000D603F8011586108A17868DEC04C0F8017A
:100CA000108A178680E09FBE882381F40E94760414
:100CB000F80186850BC09FBE88EC08C09FBE83E00C
:100CC00005C08150F70182839FBE80E02E960FB64B
:100CD000F894DEBF0FBECDBFCF91DF911F910F9172
:100CE000FF90EF90DF90CF90BF90AF909F900895CE
:100CF0001F93CF93DF93EC010097B1F01FB7F894E7
:100D0000E881F98182E08687E881F981108A178677
:100D10008A819B81BF010E94D6036881798185E029
:100D200094E00E9474031FBFDF91CF911F9108953B
:100D3000DF92EF92FF920F931F93CF93DF93009771
:100D400011F419EC32C07C0100E08AECD82E1FB7F8
:100D5000F894C7010E94B803EC010097D9F0DE8631
:100D600085E094E0BE010E947403882319F01FBF40
:100D70001CEC12C08F859889009749F00E943008BA
:100D8000882319F01FBF1DEC07C0188A1F861FBFDC
:100D900001E0DDCF1FBF10E0013039F40E94640391
:100DA000892B19F080E00E947604812FDF91CF918A
:100DB0001F910F91FF90EF90DF900895CF92DF92F7
:100DC000EF92FF920F931F93CF93DF937C010097D5
:100DD00011F419EC44C00E9464036C010FB7F8943D
:100DE000F701828193818C159D0519F00FBF1FECCF
:100DF00032C0F701848181508483882351F51382A6
:100E0000128280819181892B21F1C7010E94B80350
:100E1000EC0185E094E0BE010E947403882319F080
:100E20000FBF1CEC18C01E86F701D383C2838F85C9
:100E30009889009731F00E943008882311F01DEC4A
:100E400003C0188A1F8610E00FBF80E00E9476045E
:100E500002C00FBF10E0C701B6010E94830C812FB2
:100E6000DF91CF911F910F91FF90EF90DF90CF9086
:100E700008951F93CF93DF93EC010097B1F01FB754
:100E8000F894E881F98182E08687E881F981108A07
:100E900017868A819B81BF010E94D6036881798170
:100EA00085E094E00E9474031FBFDF91CF911F91F2
:100EB00008958F929F92AF92BF92CF92DF92EF925E
:100EC000FF920F931F93DF93CF93CDB7DEB72E978B
:100ED0000FB6F894DEBF0FBECDBF7C014A015B01A7
:100EE000009711F419EC75C00E9464036C010FB7F0
:100EF000F894009719F40FBF18EC67C0F7018281CE
:100F00009381009709F44FC08C159D0509F44BC0DF
:100F1000B7FC46C0C701B6010E947403882319F0CC
:100F20000FBF1CEC52C081E0F6018587811491044B
:100F3000A104B10411F1DA82C982FC82EB8289E357
:100F400097E09E838D83CE01019698878F83898653
:100F50009A86AB86BC86CE010596908B87870E94C9
:100F60000B08882369F0C701B6010E94D603F60179
:100F70001586108A17861DEC04C0F601108A1786A4
:100F800010E00FBF112309F580E00E947604F601FE
:100F900016851123D1F4F70184818F5F848315C0F6
:100FA0000FBF13E012C0F70184818F3F11F41BECD7
:100FB0000BC08F5FF701848382819381892B19F4A1
:100FC000F701D382C28210E00FBFC701B6010E94B1
:100FD000900C812F2E960FB6F894DEBF0FBECDBFBA
:100FE000CF91DF911F910F91FF90EF90DF90CF9005
:100FF000BF90AF909F908F900895FC01009711F4DF
:1010000089EC0895138212821482118210820E9448
:10101000A60C80E00895FC01009701F18081918188
:10102000892BE1F084819581A681B7810097A10584
:10103000B105A1F02FB7F89480912104909122047A
:10104000009719F41186108602C091878087F0936B
:101050002204E09321042FBF80E0089589EC0895D5
:101060001F93BC01009711F489EC25C01FB7F894B9
:101070004091210450912204DA01FA0118C0E617C8
:10108000F70781F480859185E417F50729F490939B
:1010900022048093210404C019969C938E93189780
:1010A00080E008C0DF01808591859C01F9013097BF
:1010B00031F78EEC1FBF1F91089560911D04709150
:1010C0001E0480911F0490912004089560931D04D4
:1010D00070931E0480931F049093200408950F932F
:1010E0001F93CF93DF9380910704882309F447C0AF
:1010F00080911D0490911E04A0911F04B0912004C2
:101100000196A11DB11D80931D0490931E04A09310
:101110001F04B0932004C0912104D09122048E01B9
:101120002CC08C819D81AE81BF810197A109B1093D
:101130008C839D83AE83BF830097A105B10511F019
:101140008E0118C080912104909122042885398550
:10115000C817D90729F4309322042093210403C02F
:10116000F80131872087E881F981309719F08A8169
:101170009B8119950884D985C02D209791F6DF9120
:10118000CF911F910F910895DF92EF92FF920F93ED
:101190001F93DF93CF93CDB7DEB72C970FB6F8949C
:1011A000DEBF0FBECDBF7B018C010E946403FC013A
:1011B000E114F1040105110511F489EC26C0009732
:1011C00011F488EC22C0DFB6F89481E08587FA83B9
:1011D000E98383E199E09C838B83CE0101969E8312
:1011E0008D83EF82F88609871A87CE010396908B4C
:1011F00087870E940B08882319F0DFBE8DEC05C09D
:10120000DFBE80E00E94760480E02C960FB6F89452
:10121000DEBF0FBECDBFCF91DF911F910F91FF9029
:10122000EF90DF9008951F93FC01009749F01FB7DE
:10123000F8946081718185E094E00E9474031FBF7F
:101240001F910895EF92FF920F931F93FC01009757
:1012500049F16115710531F121153105410551053E
:1012600009F1E114F10401051105E1F075836483CE
:101270002683378340875187E286F3860487158764
:10128000118210821382128216861786108A118AA2
:10129000128A138A148A158A168A178A108E118E5A
:1012A00080E001C089EC1F910F91FF90EF900895AD
:1012B0001F93CF93DF93EC010097B1F01FB7F89421
:1012C000E881F98182E08687E881F981108A1786B2
:1012D0008C819D81BF010E94D6036881798185E060
:1012E00094E00E9474031FBFDF91CF911F91089576
:1012F000EF92FF920F931F93CF93DF93EC01009730
:1013000009F458C06115710509F454C02C813D8160
:101310008E859F85280F391F4E815F81C9010E94EC
:10132000720EEE84FF84088919892E813F814885D9
:101330005985E20EF31E041F151FEE86FF86088BEB
:10134000198B8E899F89A88DB98D0196A11DB11D1C
:101350008E8B9F8BA88FB98F6A857B858C859D85A9
:101360000E940A0EE616F7060807190720F01E86E7
:101370001F86188A198ACE0102960E94B803EC01D2
:101380000097B1F085E094E0BE010E9474038823C9
:1013900011F08CEC10C01E868F859889009731F073
:1013A0000E943008882311F08DEC05C0188A1F8632
:1013B00080E001C089ECDF91CF911F910F91FF90E8
:1013C000EF9008956F927F928F929F92AF92BF920B
:1013D000CF92DF92EF92FF920F931F93DF93CF9301
:1013E000CDB7DEB760970FB6F894DEBF0FBECDBFA6
:1013F0006C014A015B013901009709F482C0211593
:10140000310509F47EC0EFB6F894FC0126893789CE
:10141000408D518D82859385A485B5852817390720
:101420004A075B0709F05FC0B7FC59C00E9464031C
:101430008C01009709F44FC0C601B8010E947403E3
:10144000882309F044C081E0F80185878114910464
:10145000A104B10429F11A830983DC82CB82CD82F5
:10146000DE8288E599E098878F83CE0101969A877E
:1014700089878B869C86AD86BE86CE010796908B2B
:1014800087870E940B08882371F0C601B8010E946B
:10149000D603F8011586108A17864DECF42E04C089
:1014A000F801108A1786FF24EFBEFF2061F580E067
:1014B0000E947604F801F684FF2029F51FB7F894FE
:1014C000C601B3010E947809F82E1FBF1CC0EFBEF1
:1014D0003CECF32E18C0EFBE28ECF22E14C0EFBE89
:1014E00093E0F92E10C0C601B3010E947809F82ECE
:1014F000EFBE0E946403892B31F080E00E947604E5
:1015000002C089ECF82E8F2D60960FB6F894DEBFDE
:101510000FBECDBFCF91DF911F910F91FF90EF9044
:10152000DF90CF90BF90AF909F908F907F906F9003
:101530000895EF92FF920F931F93CF93DF93EC01E7
:10154000009709F458C06115710509F454C02C8145
:101550003D818A899B89280F391F4E815F81CB018C
:10156000B9010E94720EEA88FB880C891D892E81C0
:101570003F8148855985E20EF31E041F151FEA8A34
:10158000FB8A0C8B1D8B8E899F89A88DB98D019745
:10159000A109B1098E8B9F8BA88FB98F6A857B8536
:1015A0008C859D850E940A0EE616F7060807190726
:1015B00020F01A8A1B8A1C8A1D8ACE010E94B80359
:1015C000EC010097B1F085E094E0BE010E94740345
:1015D000882311F08CEC10C01E868F8598890097A7
:1015E00031F00E943008882311F08DEC05C0188A74
:1015F0001F8680E001C089ECDF91CF911F910F9190
:10160000FF90EF9008955F926F927F928F929F92DA
:10161000AF92BF92CF92DF92EF92FF920F931F9300
:10162000DF93CF93CDB7DEB760970FB6F894DEBFE8
:101630000FBECDBF4C016A017B013901009709F44F
:1016400082C02115310509F47EC05FB6F894FC0113
:1016500086899789A08DB18D0097A105B10509F004
:1016600064C077FD5EC00E9464038C01009709F49A
:1016700054C0A2E0AA2EB12CA80CB91CC501B80117
:101680000E947403882309F044C081E0F801858733
:10169000C114D104E104F10429F11A8309839C8265
:1016A0008B82BE82AD8288E599E098878F83CE01D8
:1016B00001969A878987CB86DC86ED86FE86CE01E9
:1016C0000796908B87870E940B08882371F0C501CD
:1016D000B8010E94D603F8011586108A1786FDEC22
:1016E000FF2E04C0F801108A1786FF245FBEFF207A
:1016F00061F580E00E947604F801F684FF2029F568
:101700001FB7F894C401B3010E94990AF82E1FBFB5
:101710001CC05FBEECECFE2E18C05FBE78ECF72E4E
:1017200014C05FBE63E0F62E10C0C401B9010E9470
:10173000990AF82E5FBE0E946403892B31F080E085
:101740000E94760402C059ECF52E8F2D60960FB6DC
:10175000F894DEBF0FBECDBFCF91DF911F910F91E7
:10176000FF90EF90DF90CF90BF90AF909F908F90C1
:101770007F906F905F900895BF92CF92DF92EF922B
:10178000FF920F931F93CF93DF93009711F419ECFF
:101790003DC012E0E12EF12CE80EF91E6C0100E0D4
:1017A000BAECBB2E1FB7F894C7010E94B803EC0136
:1017B000009731F4C6010E94B803EC010097D9F0FC
:1017C000BE8685E094E0BE010E947403882319F070
:1017D0001FBF1CEC12C08F859889009749F00E94AA
:1017E0003008882319F01FBF1DEC07C0188A1F8618
:1017F0001FBF01E0D7CF1FBF10E0013039F40E94B6
:101800006403892B19F080E00E947604812FDF9118
:10181000CF911F910F91FF90EF90DF90CF90BF90ED
:1018200008959C01A1ECBCE0E0E0F0E08D919C917A
:101830001197892B39F4EE0FFF1FEF53F34F3183CC
:101840002083089531961296E431F10579F70895D1
:10185000AF92BF92CF92DF92EF92FF920F931F93BE
:10186000CF93DF93B82EEB017A016901AFB6F894FC
:101870008091250490912604019668EC70E00E9406
:10188000290E8C0190932604809325040E94CA029D
:101890002BE030E0029FF001039FF00D129FF00D4E
:1018A0001124E95DFB4F6083718382839383809170
:1018B000250490912604829FF001839FF00D929F52
:1018C000F00D1124E95DFB4F8481882381F4B482FB
:1018D000D683C583F086E782D286C18680912304B1
:1018E0009091240401969093240480932304AFBE26
:1018F000DF91CF911F910F91FF90EF90DF90CF90EC
:10190000BF90AF9008959C01FB0182818A3F39F01E
:1019100087E0B901AF0120E030E00E94280C089573
:101920009C01FB0182818A3F39F086E0B901AF0159
:1019300020E030E00E94280C0895BC0188E040E0DF
:1019400050E020E030E00E94280C0895BC0185E0C2
:1019500040E050E020E030E00E94280C0895FC01B7
:1019600082818A3F41F084E0BF0140E050E020E006
:1019700030E00E94280C0895FC0182818A3F41F0EA
:1019800083E0BF0140E050E020E030E00E94280CFE
:101990000895CF93DF93FC01EB0182819A818A3F06
:1019A00039F09A3F81F5F093EA0CE093E90C06C018
:1019B0009A3F21F07093EC0C6093EB0C6091E90C72
:1019C0007091EA0C4091EB0C5091EC0C6417750788
:1019D00089F06115710549F14115510531F181E039
:1019E00020E030E00E94280C8091EB0C9091EC0CF0
:1019F0000E94BC0C1092EA0C1092E90C1092EC0CB4
:101A00001092EB0C12C01092EA0C1092E90C10929A
:101A1000EC0C1092EB0C81E0BF01AE0120E030E055
:101A20000E94280CCE010E94BC0CDF91CF9108953A
:101A3000FC0182818A3F41F082E0BF0140E050E03A
:101A400020E030E00E94280C0895CF93DF93EC0152
:101A500003C021960E94FC0288818823D1F78AE086
:101A60000E94FC02DF91CF910895AF92BF92CF9276
:101A7000DF92EF92FF920F931F93DF93CF93CDB737
:101A8000DEB764970FB6F894DEBF0FBECDBF82E21B
:101A9000E82EF12CEC0EFD1EF701C190D1907F01D4
:101AA0005E010894A11CB11C9FC0853209F097C04B
:101AB000F6018181833641F487010E5F1F4FF701E4
:101AC00080810E94FC0264C08537E1F4F6018281C6
:101AD000843609F062C087010E5F1F4FF7018081D5
:101AE0009181B5014AE050E00E947B0E750105C06E
:101AF0000894E11CF11C0E94FC02F70180818823FC
:101B0000B9F767C08837B9F487010E5F1F4FF70137
:101B100080819181B50140E150E00E947B0E75010A
:101B200005C00894E11CF11C0E94FC02F7018081B1
:101B30008823B9F72DC08037C9F487010C5F1F4F88
:101B4000F7016081718182819381A50120E130E0FC
:101B50000E949C0E750105C00894E11CF11C0E94B6
:101B6000FC02F70180818823B9F712C0833799F40A
:101B700087010E5F1F4FF701E080F18005C00894D8
:101B8000E11CF11C0E94FC02F70180818823B9F757
:101B900082E090E020C0853739F5F60182818C36ED
:101BA00019F587010C5F1F4FF701608171818281F8
:101BB0009381A5012AE030E00E94D00E750105C096
:101BC0000894E11CF11C0E94FC02F701808188232B
:101BD000B9F783E090E0C80ED91E780105C00894DB
:101BE000C11CD11C0E94FC02F6018081882309F0EF
:101BF0005CCF64960FB6F894DEBF0FBECDBFCF9119
:101C0000DF911F910F91FF90EF90DF90CF90BF90E9
:101C1000AF900895629FD001739FF001829FE00D05
:101C2000F11D649FE00DF11D929FF00D839FF00D5B
:101C3000749FF00D659FF00D9927729FB00DE11D07
:101C4000F91F639FB00DE11DF91FBD01CF011124E4
:101C5000089597FB092E07260AD077FD04D02ED0D1
:101C600006D000201AF4709561957F4F0895F6F71D
:101C7000909581959F4F0895A1E21A2EAA1BBB1B38
:101C8000FD010DC0AA1FBB1FEE1FFF1FA217B30748
:101C9000E407F50720F0A21BB30BE40BF50B661F5E
:101CA000771F881F991F1A9469F760957095809522
:101CB00090959B01AC01BD01CF010895AA1BBB1BF0
:101CC00051E107C0AA1FBB1FA617B70710F0A61B3C
:101CD000B70B881F991F5A95A9F780959095BC015D
:101CE000CD010895FB01DC0102C001900D9241502D
:101CF0005040D8F70895FB019F01E8944230C4F0AA
:101D00004532B4F44A3029F497FB1EF4909581953E
:101D10009F4F642F77270E945E0E805D8A330CF000
:101D2000895D8193CB010097A1F716F45DE2519391
:101D30001082C9010C943411FA01CF93FF93EF93F1
:101D4000223044F1253234F5C22FE894CA3049F4E8
:101D500097FB3EF490958095709561957F4F8F4FDE
:101D60009F4F2C2F332744275527FF93EF930E9433
:101D70003C0EEF91FF91605D6A330CF0695D6193F9
:101D8000B901CA01605070408040904051F716F48C
:101D9000CDE2C19310828F919F91CF910C94341119
:101DA000FA01CF93FF93EF932230CCF02532BCF4AD
:101DB000C22F2C2F332744275527FF93EF930E94E0
:101DC0003C0EEF91FF91605D6A330CF0695D6193A9
:101DD000B901CA01605070408040904051F71082B4
:101DE0008F919F91CF910C943411DF93CF93CDB706
:101DF000DEB7FE01369661917191A091EF0CB09122
:101E0000F00C13968C911397886013968C938091A5
:101E1000EF0C9091F00CAF010E94180FE091EF0CC5
:101E2000F091F00C2381277F2383CF91DF910895D8
:101E30002F923F924F925F926F927F928F929F92DA
:101E4000AF92BF92CF92DF92EF92FF920F931F93C8
:101E5000DF93CF93CDB7DEB72B970FB6F894DEBFE5
:101E60000FBECDBF3C012B015A01FC011782168227
:101E7000838181FD03C06FEF7FEFC6C19AE0892E99
:101E80001E010894211C311CF3012381F20123FD62
:101E9000859123FF81912F01882309F4B2C18532F6
:101EA00039F423FD859123FF81912F01853229F497
:101EB00090E0B3010E944411E7CF982FFF24EE2455
:101EC0009924FFE1FF15D0F09B3269F09C3228F491
:101ED000903259F0933291F40EC09D3249F0903314
:101EE00069F441E024C052E0F52A84E0F82A28C0D1
:101EF00098E0F92A25C0E0E1FE2A22C0F7FC29C0BB
:101F0000892F80538A3070F4F6FE05C0989C902C7F
:101F10001124980E15C0E89CE02C1124E80EF0E284
:101F2000FF2A0EC09E3229F4F6FC6BC140E4F42A6D
:101F300007C09C3619F450E8F52A02C0983649F4D7
:101F4000F20123FD959123FF91912F01992309F02F
:101F5000B8CF892F8554833018F08052833038F4FD
:101F600044E050E0A40EB51E5FE359830FC09336E2
:101F700031F0933779F0933509F056C020C0F50160
:101F80008081898342E050E0A40EB51E610101E02A
:101F900010E012C0F501C080D180F6FC03C06FEFE5
:101FA0007FEF02C0692D70E042E050E0A40EB51E44
:101FB000C6010E9429118C015FE7F52214C0F501CA
:101FC000C080D180F6FC03C06FEF7FEF02C0692DA7
:101FD00070E042E050E0A40EB51EC6010E941E1142
:101FE0008C0150E8F52AF3FE07C01AC080E290E0A9
:101FF000B3010E944411EA948E2D90E0081719074E
:10200000A8F30EC0F601F7FC8591F7FE81916F01F0
:1020100090E0B3010E944411E110EA940150104095
:102020000115110579F7EAC0943611F0993669F572
:10203000F7FE08C0F501208131814281538184E09F
:1020400090E00AC0F501808191819C01442737FD11
:102050004095542F82E090E0A80EB91E9FE6F92229
:1020600057FF09C050954095309521953F4F4F4FF0
:102070005F4FE0E8FE2ACA01B901A1012AE030E081
:102080000E947011D82ED21840C0953729F41F2D08
:102090001F7E2AE030E01DC01F2D197F9F3661F0A2
:1020A000903720F4983509F0ACC00FC0903739F064
:1020B000983709F0A6C004C028E030E00AC01061DB
:1020C00014FD146020E130E004C014FD166020E12E
:1020D00032E017FF08C0F501608171818281938130
:1020E00044E050E008C0F50180819181BC0180E0AE
:1020F00090E042E050E0A40EB51EA1010E947011D4
:10210000D82ED2188FE7F82EF122F6FE0BC05EEF24
:10211000F522D91438F4F4FE07C0F2FC05C08FEEA6
:10212000F82202C01D2D01C0192DF4FE0DC0FE01C4
:10213000ED0DF11D8081803319F499EEF92208C06C
:102140001F5FF2FE05C003C08F2D867809F01F5F68
:102150000F2DF3FC14C0F0FE0FC01E1510F09D2CC7
:102160000BC09D2C9E0C911A1E2D06C080E290E0A3
:10217000B3010E9444111F5F1E15C0F304C01E1559
:1021800010F4E11A01C0EE2404FF0FC080E390E0D8
:10219000B3010E94441102FF1DC001FD03C088E786
:1021A00090E00EC088E590E00BC0802F867891F01B
:1021B00001FF02C08BE201C080E2F7FC8DE290E0FB
:1021C000B3010E94441106C080E390E0B3010E9475
:1021D00044119A94D914C0F3DA94F101ED0DF11D74
:1021E000808190E0B3010E944411DD20A9F706C070
:1021F00080E290E0B3010E944411EA94EE20C1F71E
:1022000043CEF30166817781CB012B960FB6F8940C
:10221000DEBF0FBECDBFCF91DF911F910F91FF9019
:10222000EF90DF90CF90BF90AF909F908F907F9076
:102230006F905F904F903F902F900895FC01059014
:10224000615070400110D8F7809590958E0F9F1FB8
:102250000895FC016150704001900110D8F78095FD
:1022600090958E0F9F1F0895DC01FC01672F7191DF
:102270007723E1F7329704C07C916D93708362916C
:10228000AE17BF07C8F308950F931F93CF93DF9343
:102290008C01EB018B8181FF1BC082FF0DC02E8161
:1022A0003F818C819D812817390764F4E881F98189
:1022B0000193F983E88306C0E885F985802F199595
:1022C000892B31F48E819F8101969F838E8302C07A
:1022D0000FEF1FEFC801DF91CF911F910F9108956C
:1022E000FA01AA27283051F1203181F1E8946F9347
:1022F0006E7F6E5F7F4F8F4F9F4FAF4FB1E03ED0ED
:10230000B4E03CD0670F781F891F9A1FA11D680F8A
:10231000791F8A1F911DA11D6A0F711D811D911DBD
:10232000A11D20D009F468943F912AE0269F112432
:102330003019305D3193DEF6CF010895462F477096
:10234000405D4193B3E00FD0C9F7F6CF462F4F70F1
:10235000405D4A3318F0495D31FD4052419302D04F
:10236000A9F7EACFB4E0A6959795879577956795F5
:10237000BA95C9F700976105710508959B01AC01F5
:102380000A2E06945795479537952795BA95C9F71C
:10239000620F731F841F951FA01D0895F894FFCF2F
:0E23A0000000000200000000EE01000000003E
:00000001FF
