:100000000C94CE000C94EF000C94EF000C94EF00D5
:100010000C94EF000C94EF000C94EF000C94EF00A4
:100020000C94EF000C94EF000C94EF000C94EF0094
:100030000C94EF000C94EF000C94EF000C94EF0084
:100040000C94EF000C9449020C94EF000C94EF0018
:100050000C94EF000C94EF000C94EF000C94EF0064
:100060000C94EF000C94EF000C94EF000C94EF0054
:100070000C94EF000C94EF000C94EF000C94EF0044
:100080000C94EF000C94EF000C94EF000C943003F0
:100090000C94EF000C94EF000C94EF000C94EF0024
:1000A0000C94EF000C94EF000C94EF000C94EF0014
:1000B0000C94EF000C94EF000C94EF000C94EF0004
:1000C0000C94EF000C94EF000C94EF000C94EF00F4
:1000D0000C94EF000C94EF000C94EF000C94EF00E4
:1000E0000C94EF0044656C657465206661696C650D
:1000F000640A00436F6E7465787420636865636B8F
:10010000206661696C65640A004572726F722072C4
:1001100065676973746572696E672074696D65726D
:100120000A0052656C65617365206572726F72209A
:10013000320A0053686172656420646174612075DD
:100140006E6D6F6469666965640A004572726F72EC
:10015000206372656174696E6720746573742074BE
:1001600068726561640A0052656C6561736520653B
:1001700072726F720A004572726F722063726561EB
:1001800074696E67206D757465780A004725640A86
:1001900000506173730A00476F0A000011241FBEEC
:1001A000CFEFD1E2DEBFCDBF00E00CBF12E0A0E098
:1001B000B2E0E4EDF4E200E00BBF02C007900D9264
:1001C000AE30B107D9F71CE0AEE0B2E001C01D923D
:1001D000AA3FB107E1F70E94CF020C9468120C9479
:1001E0003F028EE092E00E9478078F3C31F482E07B
:1001F00090E09093A5028093A40208958F92AF920D
:10020000BF92CF92DF92EF92FF920F931F93DF93F3
:10021000CF93CDB7DEB72A970FB6F894DEBF0FBEE7
:10022000CDBF8EE092E00E949708882369F00F927C
:100230000F9286E791E0EDB7FEB7928381830E942B
:100240008F0F01E010E0A6C01092A5021092A40248
:100250008EE092E00E9478078F3C29F00F920F9277
:1002600087E691E01FC083E192E060E145EE51E056
:1002700001E010E020E030E0E4E2EE2EE2E0FE2ECD
:1002800070E8A72EB12CC12CD12C882483940E9415
:100290005A05882319F400E010E00EC00F920F9267
:1002A0008BE491E0EDB7FEB7928381830E948F0FBC
:1002B00001E010E00F900F9069E170E080E090E0C5
:1002C0000E945E098091A4029091A502019729F0F5
:1002D0000F920F9283E391E041C00115110509F0DF
:1002E00047C08EE092E00E9478078F3C71F00F9239
:1002F0000F9282E291E0EDB7FEB7928381830E9474
:100300008F0F01E010E00F900F9081EF90E09A8343
:1003100089831C821B8284E690E0A0E0B0E08D839C
:100320009E83AF83B887CE0101960E94A5088823DB
:1003300029F00F920F9289E091E010C068EC70E014
:1003400080E090E00E945E098091A4029091A50255
:10035000029771F00F920F9283EF90E0EDB7FEB726
:10036000928381830E948F0F0F5F1F4F0F900F901A
:100370008EE092E00E943207882371F00F920F9274
:1003800084EE90E0EDB7FEB7928381830E948F0FD9
:100390000F5F1F4F0F900F909801442737FD409536
:1003A000542FB901CA012A960FB6F894DEBF0FBECA
:1003B000CDBFCF91DF911F910F91FF90EF90DF9014
:1003C000CF90BF90AF908F9008958EE092E040E084
:1003D00050E060E070E00E94F307282F8823B1F01E
:1003E00000D00F92EDB7FEB731968CE891E0ADB733
:1003F000BEB712969C938E931197228313820E940C
:100400008F0F0F900F900F900F9006C081E090E03B
:100410009093A5028093A40264E670E080E090E0EF
:100420000E945E09F9CFDC01FB0186E792E0808340
:10043000929312921292129212921292129212921B
:10044000129212921292129212921292129212928C
:100450001292129212921292129212923197ED937C
:10046000FC93089581E792E090938900809388003F
:1004700082E080936F008CE08093810008951F924A
:100480000F920FB60F9211240F900FBE0F901F9076
:1004900018951F920F920FB60F920BB60F92112460
:1004A0002F933F934F935F936F937F938F939F937C
:1004B000AF93BF93EF93FF930E94F4030E94090947
:1004C00081E00E944D05FF91EF91BF91AF919F9107
:1004D0008F917F916F915F914F913F912F910F90ED
:1004E0000BBE0F900FBE0F901F9018950E94FE0339
:1004F000FC017894009759F023813481211531054E
:1005000031F06581768187819085F901199508958B
:100510001F93CF93DF93182FEB0186EA92E040E020
:1005200050E060E070E00E94F307882381F41A3005
:1005300021F48DE0BE010E9488028091C00085FFF9
:10054000FCCF1093C60086EA92E00E94780780E014
:1005500090E0DF91CF911F9108959B01AC0184E061
:10056000220F331F441F551F8A95D1F760E074E2B4
:1005700084EF90E00E94D60E21502093C40088E1C1
:100580008093C10086EA92E00E949708882319F4BC
:1005900020E030E002C02FEF3FEFC90108958F92B5
:1005A000AF92BF92CF92DF92EF92FF920F931F9381
:1005B00087EC93E09EBF8DBFCF9740E850E060E0AE
:1005C00070E020E00E94C6058823E1F40E94320218
:1005D0008BEA92E060E143E053E000E010E020E0CD
:1005E00030E0ECEBEE2EE2E0FE2E7CECA72EB12C00
:1005F000C12CD12C882483940E945A05882311F49D
:100600000E94D404FFCF8FEF84B985B960E875E20A
:1006100080E090E00E94AD0280E092E09093F70CC1
:100620008093F60C0F920F9287E991E0EDB7FEB739
:10063000928381830E948F0F81E991E0EDB7FEB72D
:10064000928381830E948F0F0F900F9085B1805805
:1006500085B964E670E080E090E00E945E09F6CF24
:100660001F920F920FB60F9211248F939F93AF9307
:10067000BF938091080490910904A0910A04B0915D
:100680000B040196A11DB11D8093080490930904E9
:10069000A0930A04B0930B0410929500109294005A
:1006A000BF91AF919F918F910F900FBE0F901F90B0
:1006B000189581E080937100E1E9F0E082E08083A9
:1006C0008081886080830895EF92FF920F931F933B
:1006D000E0909400F090950000E010E06091080434
:1006E0007091090480910A0490910B042FEF3FEF61
:1006F00040E050E00E94A40EE60EF71E081F191FEE
:1007000016950795F794E794B701C8011F910F91CB
:10071000FF90EF9008959093CD008093CC0088E1F6
:100720008093C90086E08093CA000895982F809135
:10073000C80085FFFCCF9093CE0008952F923F9282
:100740004F925F926F927F928F929F92AF92BF92E1
:10075000CF92DF92EF92FF920F931F93CF93DF938D
:100760000BB60F920CB60F920DB71EB7C82FD92F2C
:1007700008831983C62FD72F088119810DBF1EBF8B
:100780000F900CB60F900BB6DF91CF911F910F9188
:10079000FF90EF90DF90CF90BF90AF909F908F90A1
:1007A0007F906F905F904F903F902F900895C82F4B
:1007B000D92F088119810DBF1EBF0F900CB60F9065
:1007C0000BB6DF91CF911F910F91FF90EF90DF90CB
:1007D000CF90BF90AF909F908F907F906F905F90E1
:1007E0004F903F902F901895809111049091120492
:1007F000019690931204809311040895809111043E
:1008000090911204892B19F020E030E004C020916F
:100810000F0430911004C9010895FFCF0F931F9367
:10082000CF93DF938C01DB010097A1F16115710576
:1008300089F1EC0148815981EA01FA01309731F0E0
:10084000928112968C9112978917F0F4E417F507AC
:1008500061F4E801B983A8831A961C921E92199735
:100860001C96FC93EE931B970AC01A96DC93CE93CA
:1008700019971C96FC93EE931B97BC87AB87309718
:1008800059F0B287A18708C0EF01838594859C0148
:10089000F901D4CF89EC01C080E0DF91CF911F91A5
:1008A0000F910895CF93DF93EC01009719F4E0E0E6
:1008B000F0E012C0E881F981309771F0A385B4852A
:1008C000B983A883109721F01A961C921E9219974B
:1008D0001286118614861386CF01DF91CF91089579
:1008E000CF93DF93AC01DB010097A9F1EC01888184
:1008F0009981009781F1EC01FC01EA17FB0719F5DA
:100900001B96ED91FC911C97A817B90741F4EA01D9
:10091000F983E883309769F0128611860AC0FC8754
:10092000EB871B96ED91FC911C97309711F0D287C5
:10093000C1871C961C921E921B971A961C921E929F
:100940001997BD010AC023853485EF0121153105B2
:1009500011F0F901D2CF60E070E0CB01DF91CF91CF
:100960000895CF93DF93EC010097C1F0A881B9817E
:100970001097B1F012968C911297681778F01B9629
:10098000ED91FC911C97F983E883309749F012862A
:1009900011861C961C921E921B9702C0A0E0B0E02C
:1009A000CD01DF91CF91089581E080930E048CE01A
:1009B00094E06FEF0E94B104009731F0909310041F
:1009C00080930F040E94D70308950F931F93CF9332
:1009D000DF93EC018B0186179707E1F07093100409
:1009E00060930F048091C60C9091C70C892B19F469
:1009F000CE010E94560DCE01B8010E94630D8A817E
:100A00008A3F21F01093C70C0093C60CCE01B801A9
:100A10000E949E031D86DF91CF911F910F91089533
:100A2000FF920F931F93CF93DF93982F80910E0423
:100A3000882369F1FFB6F894C0910F04D091100497
:100A40008D85813039F48CE094E00E945204BC0121
:100A5000CE011AC06A81913049F06623B9F070E086
:100A6000615070408FEF6F3F780781F08CE094E029
:100A70000E94B1048C01009749F08CE094E0BE0123
:100A80000E940E04CE01B8010E94E504FFBEDF9172
:100A9000CF911F910F91FF900895209111043091F3
:100AA00012042150304030931204209311040E940C
:100AB000100508958F929F92AF92BF92CF92DF92CE
:100AC000EF92FF920F931F93DF93CF93CDB7DEB7D3
:100AD0004C01009709F44CC04115510509F448C078
:100AE000E114F10409F444C0A114B104C104D10417
:100AF00009F43EC0FC0115866283128611861486B5
:100B00001386108A178654834383058316832783AD
:100B10003087B501615070406E0D7F1D0E94130239
:100B20001FB7F8948CE094E0B4010E940E0488236F
:100B300019F01FBF8CEC1DC01FBF80910E048130C7
:100B400079F48091110490911204892B49F48091D9
:100B50000F0490911004892B19F080E00E94100579
:100B6000C4010E94AB0CC4010E94B20D80E001C020
:100B700089ECCF91DF911F910F91FF90EF90DF9063
:100B8000CF90BF90AF909F908F9008958F92AF922B
:100B9000BF92CF92DF92EF92FF920F931F937C014F
:100BA0005A016B01822E1092100410920F041092C1
:100BB0000D0410920C0410920E0483E194E06EEF89
:100BC0004DE054E000E010E020E030E00E945A05E3
:100BD0001F910F91FF90EF90DF90CF90BF90AF905B
:100BE0008F900895FC01009711F489EC08956283B9
:100BF0001182108280E00895FC01009711F489ECC5
:100C00000895628380E008950F931F93CF93DF933D
:100C1000FC01009711F419EC34C00FB7F8948081EF
:100C20009181892B29F1CF010E945204EC018CE0C3
:100C300094E0BE010E940E04882319F00FBF1CEC43
:100C400020C01E868F859889009731F00E94CA08BF
:100C5000882311F01DEC03C0188A1F8610E00FBF17
:100C60000E94FE03892B69F080E00E94100509C0F4
:100C700082818F3F11F41BEC03C08F5F828310E0F1
:100C80000FBF812FDF91CF911F910F910895DF92B8
:100C9000EF92FF920F931F93CF93DF93009711F47E
:100CA00019EC32C07C0100E08AECD82E1FB7F89412
:100CB000C7010E945204EC010097D9F0DE868CE057
:100CC00094E0BE010E940E04882319F01FBF1CECA3
:100CD00012C08F859889009749F00E94CA0888231E
:100CE00019F01FBF1DEC07C0188A1F861FBF01E047
:100CF000DDCF1FBF10E0013039F40E94FE03892BC5
:100D000019F080E00E941005812FDF91CF911F9193
:100D10000F91FF90EF90DF9008959F92AF92BF9256
:100D2000CF92DF92EF92FF920F931F93DF93CF93B7
:100D3000CDB7DEB72E970FB6F894DEBF0FBECDBF8E
:100D40007C015A016B01009711F489EC59C09FB6E0
:100D5000F894FC018281882309F04DC077FD48C0DA
:100D60000E94FE038C01009709F43FC0C701B8013F
:100D70000E940E04882319F09FBE8CEC41C081E0D4
:100D8000F8018587A114B104C104D10411F11A83BB
:100D90000983FC82EB8282E197E09E838D83CE0102
:100DA000019698878F83A986BA86CB86DC86CE018A
:100DB0000596908B87870E94A508882371F0C7014C
:100DC000B8010E947004F8011586108A17868DEC10
:100DD00004C0F801108A178680E09FBE882381F442
:100DE0000E941005F80186850BC09FBE88EC08C0E4
:100DF0009FBE83E005C08150F70182839FBE80E0E3
:100E00002E960FB6F894DEBF0FBECDBFCF91DF9107
:100E10001F910F91FF90EF90DF90CF90BF90AF9018
:100E20009F9008951F93CF93DF93EC010097B1F04B
:100E30001FB7F894E881F98182E08687E881F9811B
:100E4000108A17868A819B81BF010E947004688185
:100E500079818CE094E00E940E041FBFDF91CF9156
:100E60001F910895DF92EF92FF920F931F93CF93FC
:100E7000DF93009711F419EC32C07C0100E08AEC9A
:100E8000D82E1FB7F894C7010E945204EC010097B6
:100E9000D9F0DE868CE094E0BE010E940E04882327
:100EA00019F01FBF1CEC12C08F859889009749F07C
:100EB0000E94CA08882319F01FBF1DEC07C0188ABA
:100EC0001F861FBF01E0DDCF1FBF10E0013039F4E6
:100ED0000E94FE03892B19F080E00E941005812FEB
:100EE000DF91CF911F910F91FF90EF90DF900895C8
:100EF000CF92DF92EF92FF920F931F93CF93DF93E6
:100F00007C01009711F419EC44C00E94FE036C01AF
:100F10000FB7F894F701828193818C159D0519F024
:100F20000FBF1FEC32C0F701848181508483882376
:100F300051F51382128280819181892B21F1C701A1
:100F40000E945204EC018CE094E0BE010E940E0469
:100F5000882319F00FBF1CEC18C01E86F701D3833D
:100F6000C2838F859889009731F00E94CA08882330
:100F700011F01DEC03C0188A1F8610E00FBF80E03F
:100F80000E94100502C00FBF10E0C701B6010E9409
:100F90001D0D812FDF91CF911F910F91FF90EF9049
:100FA000DF90CF9008951F93CF93DF93EC010097CC
:100FB000B1F01FB7F894E881F98182E08687E88173
:100FC000F981108A17868A819B81BF010E94700473
:100FD000688179818CE094E00E940E041FBFDF914C
:100FE000CF911F9108958F929F92AF92BF92CF920F
:100FF000DF92EF92FF920F931F93DF93CF93CDB7C2
:10100000DEB72E970FB6F894DEBF0FBECDBF7C01C2
:101010004A015B01009711F419EC75C00E94FE03B0
:101020006C010FB7F894009719F40FBF18EC67C064
:10103000F70182819381009709F44FC08C159D05BB
:1010400009F44BC0B7FC46C0C701B6010E940E04AC
:10105000882319F00FBF1CEC52C081E0F601858790
:1010600081149104A104B10411F1DA82C982FC82D5
:10107000EB8283ED97E09E838D83CE010196988766
:101080008F8389869A86AB86BC86CE010596908B27
:1010900087870E94A508882369F0C701B6010E94CE
:1010A0007004F6011586108A17861DEC04C0F6013F
:1010B000108A178610E00FBF112309F580E00E9407
:1010C0001005F60116851123D1F4F70184818F5F95
:1010D000848315C00FBF13E012C0F70184818F3FD6
:1010E00011F41BEC0BC08F5FF70184838281938125
:1010F000892B19F4F701D382C28210E00FBFC70118
:10110000B6010E942A0D812F2E960FB6F894DEBFED
:101110000FBECDBFCF91DF911F910F91FF90EF9048
:10112000DF90CF90BF90AF909F908F900895FC017B
:10113000009711F489EC08951382128214821182AF
:1011400010820E94400D80E00895FC01009701F19B
:1011500080819181892BE1F084819581A681B7817D
:101160000097A105B105A1F02FB7F894809128044C
:1011700090912904009719F41186108602C0918776
:101180008087F0932904E09328042FBF80E008951E
:1011900089EC08951F93BC01009711F489EC25C0D8
:1011A0001FB7F8944091280450912904DA01FA01FC
:1011B00018C0E617F70781F480859185E417F507D5
:1011C00029F4909329048093280404C019969C93D1
:1011D0008E93189780E008C0DF01808591859C017F
:1011E000F901309731F78EEC1FBF1F910895609180
:1011F0002404709125048091260490912704089579
:10120000609324047093250480932604909327040C
:1012100008950F931F93CF93DF9380910E0488233B
:1012200009F447C08091240490912504A0912604DC
:10123000B09127040196A11DB11D809324049093C1
:101240002504A0932604B0932704C0912804D091CC
:1012500029048E012CC08C819D81AE81BF810197B4
:10126000A109B1098C839D83AE83BF830097A1053B
:10127000B10511F08E0118C08091280490912904C5
:1012800028853985C817D90729F430932904209374
:10129000280403C0F80131872087E881F98130975D
:1012A00019F08A819B8119950884D985C02D2097D2
:1012B00091F6DF91CF911F910F910895DF92EF92F8
:1012C000FF920F931F93DF93CF93CDB7DEB72C9789
:1012D0000FB6F894DEBF0FBECDBF7B018C010E941C
:1012E000FE03FC01E114F1040105110511F489EC80
:1012F00026C0009711F488EC22C0DFB6F89481E094
:101300008587FA83E9838DEA99E09C838B83CE01FC
:1013100001969E838D83EF82F88609871A87CE0116
:101320000396908B87870E94A508882319F0DFBE5B
:101330008DEC05C0DFBE80E00E94100580E02C9699
:101340000FB6F894DEBF0FBECDBFCF91DF911F91D6
:101350000F91FF90EF90DF9008951F93FC0100978D
:1013600049F01FB7F894608171818CE094E00E948D
:101370000E041FBF1F910895EF92FF920F931F93CA
:10138000FC01009749F16115710531F12115310515
:101390004105510509F1E114F10401051105E1F0E0
:1013A000758364832683378340875187E286F3867B
:1013B000048715871182108213821282168617867F
:1013C000108A118A128A138A148A158A168A178A31
:1013D000108E118E80E001C089EC1F910F91FF905B
:1013E000EF9008951F93CF93DF93EC010097B1F036
:1013F0001FB7F894E881F98182E08687E881F98156
:10140000108A17868C819D81BF010E9470046881BB
:1014100079818CE094E00E940E041FBFDF91CF9190
:101420001F910895EF92FF920F931F93CF93DF9335
:10143000EC01009709F458C06115710509F454C016
:101440002C813D818E859F85280F391F4E815F81BC
:10145000C9010E940C0FEE84FF84088919892E812E
:101460003F8148855985E20EF31E041F151FEE8645
:10147000FF86088B198B8E899F89A88DB98D01965F
:10148000A11DB11D8E8B9F8BA88FB98F6A857B851F
:101490008C859D850E94A40EE616F706080719079D
:1014A00020F01E861F86188A198ACE0102960E9495
:1014B0005204EC010097B1F08CE094E0BE010E9470
:1014C0000E04882311F08CEC10C01E868F8598893D
:1014D000009731F00E94CA08882311F08DEC05C0F6
:1014E000188A1F8680E001C089ECDF91CF911F919F
:1014F0000F91FF90EF9008956F927F928F929F923D
:10150000AF92BF92CF92DF92EF92FF920F931F9311
:10151000DF93CF93CDB7DEB760970FB6F894DEBFF9
:101520000FBECDBF6C014A015B013901009709F480
:1015300082C02115310509F47EC0EFB6F894FC0194
:1015400026893789408D518D82859385A485B585FF
:10155000281739074A075B0709F05FC0B7FC59C075
:101560000E94FE038C01009709F44FC0C601B80128
:101570000E940E04882309F044C081E0F8018587A9
:1015800081149104A104B10429F11A830983DC8236
:10159000CB82CD82DE8282EF99E098878F83CE0165
:1015A00001969A8789878B869C86AD86BE86CE01FA
:1015B0000796908B87870E94A508882371F0C60143
:1015C000B8010E947004F8011586108A17864DEC48
:1015D000F42E04C0F801108A1786FF24EFBEFF2006
:1015E00061F580E00E941005F801F684FF2029F5DE
:1015F0001FB7F894C601B3010E94120AF82E1FBF4C
:101600001CC0EFBE3CECF32E18C0EFBE28ECF22E4F
:1016100014C0EFBE93E0F92E10C0C601B3010E94C2
:10162000120AF82EEFBE0E94FE03892B31F080E0F3
:101630000E94100502C089ECF82E8F2D60960FB61F
:10164000F894DEBF0FBECDBFCF91DF911F910F91F8
:10165000FF90EF90DF90CF90BF90AF909F908F90D2
:101660007F906F900895EF92FF920F931F93CF9307
:10167000DF93EC01009709F458C06115710509F476
:1016800054C02C813D818A899B89280F391F4E8146
:101690005F81CB01B9010E940C0FEA88FB880C899D
:1016A0001D892E813F8148855985E20EF31E041F56
:1016B000151FEA8AFB8A0C8B1D8B8E899F89A88D4A
:1016C000B98D0197A109B1098E8B9F8BA88FB98F16
:1016D0006A857B858C859D850E94A40EE616F7069B
:1016E0000807190720F01A8A1B8A1C8A1D8ACE0156
:1016F0000E945204EC010097B1F08CE094E0BE012E
:101700000E940E04882311F08CEC10C01E868F8579
:101710009889009731F00E94CA08882311F08DEC57
:1017200005C0188A1F8680E001C089ECDF91CF9147
:101730001F910F91FF90EF9008955F926F927F92AB
:101740008F929F92AF92BF92CF92DF92EF92FF92D1
:101750000F931F93DF93CF93CDB7DEB760970FB68C
:10176000F894DEBF0FBECDBF4C016A017B01390189
:10177000009709F482C02115310509F47EC05FB6D7
:10178000F894FC0186899789A08DB18D0097A105F9
:10179000B10509F064C077FD5EC00E94FE038C01B4
:1017A000009709F454C0A2E0AA2EB12CA80CB91CD1
:1017B000C501B8010E940E04882309F044C081E0ED
:1017C000F8018587C114D104E104F10429F11A83D9
:1017D00009839C828B82BE82AD8282EF99E09887DA
:1017E0008F83CE0101969A878987CB86DC86ED862A
:1017F000FE86CE010796908B87870E94A5088823D6
:1018000071F0C501B8010E947004F8011586108AB4
:101810001786FDECFF2E04C0F801108A1786FF24FE
:101820005FBEFF2061F580E00E941005F801F6849C
:10183000FF2029F51FB7F894C401B3010E94330BB0
:10184000F82E1FBF1CC05FBEECECFE2E18C05FBEA2
:1018500078ECF72E14C05FBE63E0F62E10C0C40112
:10186000B9010E94330BF82E5FBE0E94FE03892B44
:1018700031F080E00E94100502C059ECF52E8F2D4A
:1018800060960FB6F894DEBF0FBECDBFCF91DF914B
:101890001F910F91FF90EF90DF90CF90BF90AF908E
:1018A0009F908F907F906F905F900895BF92CF929E
:1018B000DF92EF92FF920F931F93CF93DF930097E6
:1018C00011F419EC3DC012E0E12EF12CE80EF91EE6
:1018D0006C0100E0BAECBB2E1FB7F894C7010E9460
:1018E0005204EC01009731F4C6010E945204EC014D
:1018F0000097D9F0BE868CE094E0BE010E940E04F1
:10190000882319F01FBF1CEC12C08F85988900979F
:1019100049F00E94CA08882319F01FBF1DEC07C0B8
:10192000188A1F861FBF01E0D7CF1FBF10E001300C
:1019300039F40E94FE03892B19F080E00E94100503
:10194000812FDF91CF911F910F91FF90EF90DF904A
:10195000CF90BF9008959C01A8ECBCE0E0E0F0E0DF
:101960008D919C911197892B39F4EE0FFF1FE8534D
:10197000F34F31832083089531961296E431F105B7
:1019800079F70895AF92BF92CF92DF92EF92FF92D4
:101990000F931F93CF93DF93B82EEB017A01690168
:1019A000AFB6F89480912C0490912D04019668ECC8
:1019B00070E00E94C30E8C0190932D0480932C0440
:1019C0000E9464032BE030E0029FF001039FF00DC2
:1019D000129FF00D1124E25DFB4F608371838283BF
:1019E000938380912C0490912D04829FF001839F1A
:1019F000F00D929FF00D1124E25DFB4F848188234E
:101A000081F4B482D683C583F086E782D286C1860C
:101A100080912A0490912B04019690932B0480933B
:101A20002A04AFBEDF91CF911F910F91FF90EF90ED
:101A3000DF90CF90BF90AF9008959C01FB01828111
:101A40008A3F39F087E0B901AF0120E030E00E9421
:101A5000C20C08959C01FB0182818A3F39F086E027
:101A6000B901AF0120E030E00E94C20C0895BC0132
:101A700088E040E050E020E030E00E94C20C089591
:101A8000BC0185E040E050E020E030E00E94C20C64
:101A90000895FC0182818A3F41F084E0BF0140E06B
:101AA00050E020E030E00E94C20C0895FC018281E9
:101AB0008A3F41F083E0BF0140E050E020E030E0A9
:101AC0000E94C20C0895CF93DF93FC01EB01828149
:101AD0009A818A3F39F09A3F81F5F093F10CE093B7
:101AE000F00C06C09A3F21F07093F30C6093F20C57
:101AF0006091F00C7091F10C4091F20C5091F30C4C
:101B00006417750789F06115710549F14115510593
:101B100031F181E020E030E00E94C20C8091F20CB3
:101B20009091F30C0E94560D1092F10C1092F00C53
:101B30001092F30C1092F20C12C01092F10C109251
:101B4000F00C1092F30C1092F20C81E0BF01AE0188
:101B500020E030E00E94C20CCE010E94560DDF91C1
:101B6000CF910895FC0182818A3F41F082E0BF015C
:101B700040E050E020E030E00E94C20C0895CF9396
:101B8000DF93EC0103C021960E949603888188238D
:101B9000D1F78AE00E949603DF91CF910895AF922A
:101BA000BF92CF92DF92EF92FF920F931F93DF933A
:101BB000CF93CDB7DEB764970FB6F894DEBF0FBEF4
:101BC000CDBF82E2E82EF12CEC0EFD1EF701C19094
:101BD000D1907F015E010894A11CB11C9FC0853289
:101BE00009F097C0F6018181833641F487010E5FC9
:101BF0001F4FF70180810E94960364C08537E1F48E
:101C0000F6018281843609F062C087010E5F1F4FA2
:101C1000F70180819181B5014AE050E00E94150FE3
:101C2000750105C00894E11CF11C0E949603F701A0
:101C300080818823B9F767C08837B9F487010E5FC0
:101C40001F4FF70180819181B50140E150E00E9472
:101C5000150F750105C00894E11CF11C0E94960344
:101C6000F70180818823B9F72DC08037C9F4870137
:101C70000C5F1F4FF7016081718182819381A50103
:101C800020E130E00E94360F750105C00894E11C88
:101C9000F11C0E949603F70180818823B9F712C0D6
:101CA000833799F487010E5F1F4FF701E080F180C1
:101CB00005C00894E11CF11C0E949603F701808185
:101CC0008823B9F782E090E020C0853739F5F60126
:101CD00082818C3619F587010C5F1F4FF7016081F7
:101CE000718182819381A5012AE030E00E946A0F10
:101CF000750105C00894E11CF11C0E949603F701D0
:101D000080818823B9F783E090E0C80ED91E78015E
:101D100005C00894C11CD11C0E949603F601808165
:101D2000882309F05CCF64960FB6F894DEBF0FBE2F
:101D3000CDBFCF91DF911F910F91FF90EF90DF907A
:101D4000CF90BF90AF900895629FD001739FF00134
:101D5000829FE00DF11D649FE00DF11D929FF00D3B
:101D6000839FF00D749FF00D659FF00D9927729F72
:101D7000B00DE11DF91F639FB00DE11DF91FBD01FD
:101D8000CF011124089597FB092E07260AD077FD6D
:101D900004D02ED006D000201AF4709561957F4FA4
:101DA0000895F6F7909581959F4F0895A1E21A2E18
:101DB000AA1BBB1BFD010DC0AA1FBB1FEE1FFF1FEF
:101DC000A217B307E407F50720F0A21BB30BE40B3F
:101DD000F50B661F771F881F991F1A9469F7609586
:101DE0007095809590959B01AC01BD01CF01089540
:101DF000AA1BBB1B51E107C0AA1FBB1FA617B70731
:101E000010F0A61BB70B881F991F5A95A9F780954C
:101E10009095BC01CD010895FB01DC0102C0019049
:101E20000D9241505040D8F70895FB019F01E8946E
:101E30004230C4F04532B4F44A3029F497FB1EF422
:101E4000909581959F4F642F77270E94F80E805DB3
:101E50008A330CF0895D8193CB010097A1F716F4CA
:101E60005DE251931082C9010C94CE11FA01CF9317
:101E7000FF93EF93223044F1253234F5C22FE894DA
:101E8000CA3049F497FB3EF4909580957095619522
:101E90007F4F8F4F9F4F2C2F332744275527FF937A
:101EA000EF930E94D60EEF91FF91605D6A330CF0C4
:101EB000695D6193B901CA016050704080409040F3
:101EC00051F716F4CDE2C19310828F919F91CF917B
:101ED0000C94CE11FA01CF93FF93EF932230CCF004
:101EE0002532BCF4C22F2C2F332744275527FF93CC
:101EF000EF930E94D60EEF91FF91605D6A330CF074
:101F0000695D6193B901CA016050704080409040A2
:101F100051F710828F919F91CF910C94CE11DF9346
:101F2000CF93CDB7DEB7FE01369661917191A09146
:101F3000F60CB091F70C13968C911397886013965A
:101F40008C938091F60C9091F70CAF010E94B20F28
:101F5000E091F60CF091F70C2381277F2383CF913A
:101F6000DF9108952F923F924F925F926F927F92EE
:101F70008F929F92AF92BF92CF92DF92EF92FF9299
:101F80000F931F93DF93CF93CDB7DEB72B970FB689
:101F9000F894DEBF0FBECDBF3C012B015A01FC01FE
:101FA00017821682838181FD03C06FEF7FEFC6C168
:101FB0009AE0892E1E010894211C311CF301238113
:101FC000F20123FD859123FF81912F01882309F4DC
:101FD000B2C1853239F423FD859123FF81912F0110
:101FE000853229F490E0B3010E94DE11E7CF982FEB
:101FF000FF24EE249924FFE1FF15D0F09B3269F015
:102000009C3228F4903259F0933291F40EC09D32F4
:1020100049F0903369F441E024C052E0F52A84E0AD
:10202000F82A28C098E0F92A25C0E0E1FE2A22C05B
:10203000F7FC29C0892F80538A3070F4F6FE05C062
:10204000989C902C1124980E15C0E89CE02C11242B
:10205000E80EF0E2FF2A0EC09E3229F4F6FC6BC1B6
:1020600040E4F42A07C09C3619F450E8F52A02C06F
:10207000983649F4F20123FD959123FF91912F01A8
:10208000992309F0B8CF892F8554833018F08052F6
:10209000833038F444E050E0A40EB51E5FE359836A
:1020A0000FC0933631F0933779F0933509F056C06D
:1020B00020C0F5018081898342E050E0A40EB51E66
:1020C000610101E010E012C0F501C080D180F6FC92
:1020D00003C06FEF7FEF02C0692D70E042E050E077
:1020E000A40EB51EC6010E94C3118C015FE7F52244
:1020F00014C0F501C080D180F6FC03C06FEF7FEF04
:1021000002C0692D70E042E050E0A40EB51EC60189
:102110000E94B8118C0150E8F52AF3FE07C01AC0DE
:1021200080E290E0B3010E94DE11EA948E2D90E0EF
:1021300008171907A8F30EC0F601F7FC8591F7FE02
:1021400081916F0190E0B3010E94DE11E110EA94E9
:10215000015010400115110579F7EAC0943611F0CD
:10216000993669F5F7FE08C0F50120813181428179
:10217000538184E090E00AC0F501808191819C0147
:10218000442737FD4095542F82E090E0A80EB91EF9
:102190009FE6F92257FF09C050954095309521954B
:1021A0003F4F4F4F5F4FE0E8FE2ACA01B901A1013E
:1021B0002AE030E00E940A12D82ED21840C095378B
:1021C00029F41F2D1F7E2AE030E01DC01F2D197F2E
:1021D0009F3661F0903720F4983509F0ACC00FC0FD
:1021E000903739F0983709F0A6C004C028E030E0F5
:1021F0000AC0106114FD146020E130E004C014FD39
:10220000166020E132E017FF08C0F501608171819E
:102210008281938144E050E008C0F5018081918182
:10222000BC0180E090E042E050E0A40EB51EA101A8
:102230000E940A12D82ED2188FE7F82EF122F6FE4D
:102240000BC05EEFF522D91438F4F4FE07C0F2FC9F
:1022500005C08FEEF82202C01D2D01C0192DF4FE1D
:102260000DC0FE01ED0DF11D8081803319F499EE52
:10227000F92208C01F5FF2FE05C003C08F2D8678CB
:1022800009F01F5F0F2DF3FC14C0F0FE0FC01E15E8
:1022900010F09D2C0BC09D2C9E0C911A1E2D06C07B
:1022A00080E290E0B3010E94DE111F5F1E15C0F3B3
:1022B00004C01E1510F4E11A01C0EE2404FF0FC083
:1022C00080E390E0B3010E94DE1102FF1DC001FD1A
:1022D00003C088E790E00EC088E590E00BC0802F37
:1022E000867891F001FF02C08BE201C080E2F7FC2A
:1022F0008DE290E0B3010E94DE1106C080E390E021
:10230000B3010E94DE119A94D914C0F3DA94F1015A
:10231000ED0DF11D808190E0B3010E94DE11DD2002
:10232000A9F706C080E290E0B3010E94DE11EA94B2
:10233000EE20C1F743CEF30166817781CB012B9666
:102340000FB6F894DEBF0FBECDBFCF91DF911F91C6
:102350000F91FF90EF90DF90CF90BF90AF909F9044
:102360008F907F906F905F904F903F902F90089547
:10237000FC010590615070400110D8F78095909550
:102380008E0F9F1F0895FC01615070400190011055
:10239000D8F7809590958E0F9F1F0895DC01FC0162
:1023A000672F71917723E1F7329704C07C916D9389
:1023B00070836291AE17BF07C8F308950F931F9300
:1023C000CF93DF938C01EB018B8181FF1BC082FFD8
:1023D0000DC02E813F818C819D812817390764F4BF
:1023E000E881F9810193F983E88306C0E885F985DE
:1023F000802F1995892B31F48E819F8101969F83BF
:102400008E8302C00FEF1FEFC801DF91CF911F91A4
:102410000F910895FA01AA27283051F1203181F156
:10242000E8946F936E7F6E5F7F4F8F4F9F4FAF4FDC
:10243000B1E03ED0B4E03CD0670F781F891F9A1FEF
:10244000A11D680F791F8A1F911DA11D6A0F711DA3
:10245000811D911DA11D20D009F468943F912AE0AF
:10246000269F11243019305D3193DEF6CF01089597
:10247000462F4770405D4193B3E00FD0C9F7F6CFC8
:10248000462F4F70405D4A3318F0495D31FD405290
:10249000419302D0A9F7EACFB4E0A6959795879526
:1024A00077956795BA95C9F7009761057105089505
:1024B0009B01AC010A2E06945795479537952795B1
:1024C000BA95C9F7620F731F841F951FA01D089549
:0424D000F894FFCFAE
:0E24D40000000002000000008802000000006E
:00000001FF
