:100000000C94DD000C94FE000C94FE000C94FE0099
:100010000C94FE000C94FE000C94FE000C94FE0068
:100020000C94FE000C94FE000C94FE000C94FE0058
:100030000C94FE000C94FE000C94FE000C94FE0048
:100040000C94FE000C9422030C94FE000C94FE0011
:100050000C94FE000C94FE000C94FE000C94FE0028
:100060000C94FE000C94FE000C94FE000C94FE0018
:100070000C94FE000C94FE000C94FE000C94FE0008
:100080000C94FE000C94FE000C94FE000C940904E9
:100090000C94FE000C94FE000C94FE000C94FE00E8
:1000A0000C94FE000C94FE000C94FE000C94FE00D8
:1000B0000C94FE000C94FE000C94FE000C94FE00C8
:1000C0000C94FE000C94FE000C94FE000C94FE00B8
:1000D0000C94FE000C94FE000C94FE000C94FE00A8
:1000E0000C94FE0044656C657465206661696C65FE
:1000F000640A0044656C657465206661696C6564BA
:100100000A004572726F72206372656174696E676E
:100110002074657374207468726561640A004572A6
:10012000726F72206372656174696E6720746573A3
:1001300074207468726561640A004572726F72207F
:100140006372656174696E67207465737420746886
:10015000726561640A004572726F72206372656134
:1001600074696E6720746573742074687265616465
:100170000A004572726F72206372656174696E67FE
:100180002073656D0A004572726F7220637265613B
:1001900074696E6720510A0053656D312070757463
:1001A0006661696C0A004725640A005025640A00EC
:1001B000506173730A00476F0A0011241FBECFEF0E
:1001C000D1E2DEBFCDBF00E00CBF12E0A0E0B2E0A4
:1001D000E6E8F6E200E00BBF02C007900D92AE30F9
:1001E000B107D9F71EE0AEE0B2E001C01D92A93C14
:1001F000B107E1F70E94A8030C9441130C94180373
:100200008F92AF92BF92CF92DF92EF92FF920F93B5
:100210001F9310927404109273048EE092E068E2CF
:1002200072E021E030E040E050E0A4E0EA2EF12C62
:10023000012D112D0E94950A882329F00F920F920B
:1002400086E891E00BC08CE292E060E00E94CB0671
:100250008823A1F00F920F9282E791E0EDB7FEB7ED
:10026000928381830E94681080917304909174043A
:10027000019690937404809373040BC18FE292E013
:1002800060E14FE552E001E010E020E030E0F3E70C
:10029000EF2EF2E0FF2EE0E8AE2EB12CC12CD12CD7
:1002A000882483940E9433068823C1F00F920F9212
:1002B00086E591E0EDB7FEB7928381830E946810D6
:1002C0002FB7F894809173049091740401969093E1
:1002D0007404809373042FBF0F900F9080E492E01A
:1002E00060E14FE552E002E010E020E030E073EF23
:1002F000E72E72E0F72EB0E8AB2EB12CC12CD12C3A
:10030000882483940E9433068823C1F00F920F92B1
:100310008AE391E0EDB7FEB7928381830E94681073
:100320002FB7F89480917304909174040196909380
:100330007404809373042FBF0F900F9081E592E0B7
:1003400060E14FE552E003E010E020E030E0A3E799
:10035000EA2EA3E0FA2EF0E8AF2EB12CC12CD12C5E
:10036000882483940E9433068823C1F00F920F9251
:100370008EE191E0EDB7FEB7928381830E94681011
:100380002FB7F89480917304909174040196909320
:100390007404809373042FBF0F900F9082E692E055
:1003A00060E14FE552E004E010E020E030E0E3EFF0
:1003B000EE2EE3E0FE2E70E8A72EB12CC12CD12C3E
:1003C000882483940E9433068823C1F00F920F92F1
:1003D00082E091E0EDB7FEB7928381830E946810BE
:1003E0002FB7F894809173049091740401969093C0
:1003F0007404809373042FBF0F900F9000E010E0FF
:100400008CE292E040E050E060E070E00E9466071D
:100410008823B1F70F5F1F4F0430110589F78EE075
:1004200092E00E942F0D8823C1F00F920F9283EF6C
:1004300090E0EDB7FEB7928381830E9468102FB7DA
:10044000F8948091730490917404019690937404CD
:10045000809373042FBF0F900F908CE292E00E9464
:1004600020078823C1F00F920F9284EE90E0EDB741
:10047000FEB7928381830E9468102FB7F894809111
:1004800073049091740401969093740480937304A0
:100490002FBF0F900F902091730430917404442764
:1004A00037FD4095542FB901CA011F910F91FF905C
:1004B000EF90DF90CF90BF90AF908F900895DF9234
:1004C000EF92FF920F931F93DF93CF930F92CDB7CD
:1004D000DEB700E010E0B6E6DB2E7E010894E11CFA
:1004E000F11CD9828EE092E040E050E060E070E0E4
:1004F00097010E94550B282F8823A1F000D00F925E
:10050000EDB7FEB731968BEA91E0ADB7BEB7129664
:100510009C938E931197228313820E9468102FB7A9
:10052000F89421C08EE092E040E050E060E070E09E
:1005300097010E94760C282F0F5F1F4F882311F11F
:1005400000D00F92EDB7FEB7319686EA91E0ADB7D5
:10055000BEB712969C938E931197228313820E94AA
:1005600068102FB7F89480917304909174040196E9
:1005700090937404809373042FBF0F900F900F908B
:100580000F9005C0B7E200311B0709F0AACF8CE23B
:1005900092E00E94DD068823C1F00F920F9288E955
:1005A00091E0EDB7FEB7928381830E9468102FB768
:1005B000F89480917304909174040196909374045C
:1005C000809373042FBF0F900F9064E670E080E07B
:1005D00090E00E94370AF9CFDC01FB018FE493E041
:1005E000808392931292129212921292129212920B
:1005F00012921292129212921292129212921292DB
:1006000012921292129212921292129212923197A6
:10061000ED93FC93089581E792E090938900809395
:10062000880082E080936F008CE0809381000895C1
:100630001F920F920FB60F9211240F900FBE0F90C2
:100640001F9018951F920F920FB60F920BB60F9234
:1006500011242F933F934F935F936F937F938F93C7
:100660009F93AF93BF93EF93FF930E94CD040E949B
:10067000E20981E00E942606FF91EF91BF91AF91C0
:100680009F918F917F916F915F914F913F912F91AA
:100690000F900BBE0F900FBE0F901F9018950E94E9
:1006A000D704FC017894009759F0238134812115F7
:1006B000310531F06581768187819085F901199541
:1006C00008951F93CF93DF93182FEB0185E794E0F4
:1006D00040E050E060E070E00E94CC08882381F4A4
:1006E0001A3021F48DE0BE010E9461038091C000A8
:1006F00085FFFCCF1093C60085E794E00E94510867
:1007000080E090E0DF91CF911F9108959B01AC01B3
:1007100084E0220F331F441F551F8A95D1F760E0F4
:1007200074E284EF90E00E94AF0F21502093C40048
:1007300088E18093C10085E794E00E9470098823D6
:1007400019F420E030E002C02FEF3FEFC901089517
:100750008F92AF92BF92CF92DF92EF92FF920F9360
:100760001F9386E995E09EBF8DBFCF9740E850E08C
:1007700060E070E020E00E949F068823E1F40E9480
:100780000B038AE794E060E14CED53E000E010E0F9
:1007900020E030E0EBE8EE2EE4E0FE2E7CECA72E2D
:1007A000B12CC12CD12C882483940E943306882339
:1007B00011F40E94AD05FFCF8FEF84B985B960E8D1
:1007C00075E280E090E00E94860380E092E09093E2
:1007D000C60E8093C50E0F920F9286EB91E0EDB797
:1007E000FEB7928381830E94681080EB91E0EDB7A1
:1007F000FEB7928381830E9468100F900F9085B19D
:10080000805885B964E670E080E090E00E94370A85
:10081000F6CF1F920F920FB60F9211248F939F93D2
:10082000AF93BF938091D7059091D805A091D9053A
:10083000B091DA050196A11DB11D8093D705909363
:10084000D805A093D905B093DA05109295001092BF
:100850009400BF91AF919F918F910F900FBE0F9019
:100860001F90189581E080937100E1E9F0E082E04B
:1008700080838081886080830895EF92FF920F9338
:100880001F93E0909400F090950000E010E06091DC
:10089000D7057091D8058091D9059091DA052FEF91
:1008A0003FEF40E050E00E947D0FE60EF71E081F6C
:1008B000191F16950795F794E794B701C8011F9182
:1008C0000F91FF90EF9008959093CD008093CC000E
:1008D00088E18093C90086E08093CA000895982F2C
:1008E0008091C80085FFFCCF9093CE0008952F9291
:1008F0003F924F925F926F927F928F929F92AF92B0
:10090000BF92CF92DF92EF92FF920F931F93CF93FC
:10091000DF930BB60F920CB60F920DB71EB7C82F10
:10092000D92F08831983C62FD72F088119810DBFAE
:100930001EBF0F900CB60F900BB6DF91CF911F9199
:100940000F91FF90EF90DF90CF90BF90AF909F906E
:100950008F907F906F905F904F903F902F90089571
:10096000C82FD92F088119810DBF1EBF0F900CB65B
:100970000F900BB6DF91CF911F910F91FF90EF90E9
:10098000DF90CF90BF90AF909F908F907F906F90AF
:100990005F904F903F902F9018958091E005909137
:1009A000E10501969093E1058093E005089580911B
:1009B000E0059091E105892B19F020E030E004C0BA
:1009C0002091DE053091DF05C9010895FFCF0F9317
:1009D0001F93CF93DF938C01DB010097A1F1611589
:1009E000710589F1EC0148815981EA01FA013097DA
:1009F00031F0928112968C9112978917F0F4E417D6
:100A0000F50761F4E801B983A8831A961C921E9237
:100A100019971C96FC93EE931B970AC01A96DC93C9
:100A2000CE9319971C96FC93EE931B97BC87AB87CC
:100A3000309759F0B287A18708C0EF01838594856C
:100A40009C01F901D4CF89EC01C080E0DF91CF9106
:100A50001F910F910895CF93DF93EC01009719F444
:100A6000E0E0F0E012C0E881F981309771F0A385F1
:100A7000B485B983A883109721F01A961C921E9210
:100A800019971286118614861386CF01DF91CF91B4
:100A90000895CF93DF93AC01DB010097A9F1EC013E
:100AA00088819981009781F1EC01FC01EA17FB072D
:100AB00019F51B96ED91FC911C97A817B90741F405
:100AC000EA01F983E883309769F0128611860AC03B
:100AD000FC87EB871B96ED91FC911C97309711F0EA
:100AE000D287C1871C961C921E921B971A961C9245
:100AF0001E921997BD010AC023853485EF01211587
:100B0000310511F0F901D2CF60E070E0CB01DF9147
:100B1000CF910895CF93DF93EC010097C1F0A881A6
:100B2000B9811097B1F012968C911297681778F0EE
:100B30001B96ED91FC911C97F983E883309749F05F
:100B4000128611861C961C921E921B9702C0A0E072
:100B5000B0E0CD01DF91CF91089581E08093DD0574
:100B60008BED95E06FEF0E948A05009731F090932E
:100B7000DF058093DE050E94B00408950F931F9354
:100B8000CF93DF93EC018B0186179707E1F0709309
:100B9000DF056093DE058091950E9091960E892B6E
:100BA00019F4CE010E942F0ECE01B8010E943C0E16
:100BB0008A818A3F21F01093960E0093950ECE0104
:100BC000B8010E9477041D86DF91CF911F910F918C
:100BD0000895FF920F931F93CF93DF93982F8091E7
:100BE000DD05882369F1FFB6F894C091DE05D09148
:100BF000DF058D85813039F48BED95E00E942B0562
:100C0000BC01CE011AC06A81913049F06623B9F067
:100C100070E0615070408FEF6F3F780781F08BED8F
:100C200095E00E948A058C01009749F08BED95E0D4
:100C3000BE010E94E704CE01B8010E94BE05FFBEBE
:100C4000DF91CF911F910F91FF9008952091E005C2
:100C50003091E105215030403093E1052093E005CB
:100C60000E94E90508958F929F92AF92BF92CF9212
:100C7000DF92EF92FF920F931F93DF93CF93CDB745
:100C8000DEB74C01009709F44CC04115510509F439
:100C900048C0E114F10409F444C0A114B104C10432
:100CA000D10409F43EC0FC011586628312861186C8
:100CB00014861386108A178654834383058316830C
:100CC00027833087B501615070406E0D7F1D0E94F3
:100CD000EC021FB7F8948BED95E0B4010E94E70495
:100CE000882319F01FBF8CEC1DC01FBF8091DD054C
:100CF000813079F48091E0059091E105892B49F4E8
:100D00008091DE059091DF05892B19F080E00E942B
:100D1000E905C4010E94840DC4010E948B0E80E08D
:100D200001C089ECCF91DF911F910F91FF90EF905F
:100D3000DF90CF90BF90AF909F908F9008958F924B
:100D4000AF92BF92CF92DF92EF92FF920F931F93D9
:100D50007C015A016B01822E1092DF051092DE0594
:100D60001092DC051092DB051092DD0582EE95E015
:100D70006EEF46EE54E000E010E020E030E00E942C
:100D800033061F910F91FF90EF90DF90CF90BF90AF
:100D9000AF908F900895FC01009711F489EC0895AD
:100DA00062831182108280E00895FC01009711F4A3
:100DB00089EC0895628380E008950F931F93CF9389
:100DC000DF93FC01009711F419EC34C00FB7F894CD
:100DD00080819181892B29F1CF010E942B05EC01A3
:100DE0008BED95E0BE010E94E704882319F00FBF48
:100DF0001CEC20C01E868F859889009731F00E94D8
:100E0000A309882311F01DEC03C0188A1F8610E087
:100E10000FBF0E94D704892B69F080E00E94E9058A
:100E200009C082818F3F11F41BEC03C08F5F828366
:100E300010E00FBF812FDF91CF911F910F91089587
:100E4000DF92EF92FF920F931F93CF93DF93009760
:100E500011F419EC32C07C0100E08AECD82E1FB7E7
:100E6000F894C7010E942B05EC010097D9F0DE86AB
:100E70008BED95E0BE010E94E704882319F01FBFA7
:100E80001CEC12C08F859889009749F00E94A30935
:100E9000882319F01FBF1DEC07C0188A1F861FBFCB
:100EA00001E0DDCF1FBF10E0013039F40E94D7040C
:100EB000892B19F080E00E94E905812FDF91CF9105
:100EC0001F910F91FF90EF90DF9008959F92AF9246
:100ED000BF92CF92DF92EF92FF920F931F93DF9317
:100EE000CF93CDB7DEB72E970FB6F894DEBF0FBE07
:100EF000CDBF7C015A016B01009711F489EC59C0F8
:100F00009FB6F894FC018281882309F04DC077FDDB
:100F100048C00E94D7048C01009709F43FC0C70164
:100F2000B8010E94E704882319F09FBE8CEC41C0F1
:100F300081E0F8018587A114B104C104D10411F145
:100F40001A830983FC82EB828BEE97E09E838D836C
:100F5000CE01019698878F83A986BA86CB86DC86D8
:100F6000CE010596908B87870E947E09882371F0B9
:100F7000C701B8010E944905F8011586108A178635
:100F80008DEC04C0F801108A178680E09FBE88238C
:100F900081F40E94E905F80186850BC09FBE88ECAC
:100FA00008C09FBE83E005C08150F70182839FBEC9
:100FB00080E02E960FB6F894DEBF0FBECDBFCF9166
:100FC000DF911F910F91FF90EF90DF90CF90BF9036
:100FD000AF909F9008951F93CF93DF93EC010097FC
:100FE000B1F01FB7F894E881F98182E08687E88143
:100FF000F981108A17868A819B81BF010E94490569
:10100000688179818BED95E00E94E7041FBFDF9135
:10101000CF911F910895DF92EF92FF920F931F934C
:10102000CF93DF93009711F419EC32C07C0100E0FC
:101030008AECD82E1FB7F894C7010E942B05EC014B
:101040000097D9F0DE868BED95E0BE010E94E704A3
:10105000882319F01FBF1CEC12C08F859889009758
:1010600049F00E94A309882319F01FBF1DEC07C097
:10107000188A1F861FBF01E0DDCF1FBF10E00130BF
:1010800039F40E94D704892B19F080E00E94E90509
:10109000812FDF91CF911F910F91FF90EF90DF9003
:1010A0000895CF92DF92EF92FF920F931F93CF9309
:1010B000DF937C01009711F419EC44C00E94D7041F
:1010C0006C010FB7F894F701828193818C159D050F
:1010D00019F00FBF1FEC32C0F70184818150848367
:1010E000882351F51382128280819181892B21F10D
:1010F000C7010E942B05EC018BED95E0BE010E941B
:10110000E704882319F00FBF1CEC18C01E86F701F6
:10111000D383C2838F859889009731F00E94A309F9
:10112000882311F01DEC03C0188A1F8610E00FBF42
:1011300080E00E94E90502C00FBF10E0C701B601C0
:101140000E94F60D812FDF91CF911F910F91FF909B
:10115000EF90DF90CF9008951F93CF93DF93EC0132
:101160000097B1F01FB7F894E881F98182E0868793
:10117000E881F981108A17868A819B81BF010E94CC
:101180004905688179818BED95E00E94E7041FBFD6
:10119000DF91CF911F9108958F929F92AF92BF924E
:1011A000CF92DF92EF92FF920F931F93DF93CF9333
:1011B000CDB7DEB72E970FB6F894DEBF0FBECDBF0A
:1011C0007C014A015B01009711F419EC75C00E9483
:1011D000D7046C010FB7F894009719F40FBF18ECFF
:1011E00067C0F70182819381009709F44FC08C1585
:1011F0009D0509F44BC0B7FC46C0C701B6010E946B
:10120000E704882319F00FBF1CEC52C081E0F601FF
:10121000858781149104A104B10411F1DA82C98295
:10122000FC82EB828CEA98E09E838D83CE0101964E
:1012300098878F8389869A86AB86BC86CE01059671
:10124000908B87870E947E09882369F0C701B601C9
:101250000E944905F6011586108A17861DEC04C008
:10126000F601108A178610E00FBF112309F580E000
:101270000E94E905F60116851123D1F4F701848156
:101280008F5F848315C00FBF13E012C0F701848104
:101290008F3F11F41BEC0BC08F5FF70184838281B9
:1012A0009381892B19F4F701D382C28210E00FBF1A
:1012B000C701B6010E94030E812F2E960FB6F89437
:1012C000DEBF0FBECDBFCF91DF911F910F91FF9079
:1012D000EF90DF90CF90BF90AF909F908F90089548
:1012E000FC01009711F489EC089513821282148294
:1012F000118210820E94190E80E00895FC0100976F
:1013000001F180819181892BE1F084819581A68111
:10131000B7810097A105B105A1F02FB7F89480918E
:10132000F7059091F805009719F41186108602C010
:1013300091878087F093F805E093F7052FBF80E051
:10134000089589EC08951F93BC01009711F489EC6E
:1013500025C01FB7F8944091F7055091F805DA01C0
:10136000FA0118C0E617F70781F480859185E41724
:10137000F50729F49093F8058093F70504C01996B2
:101380009C938E93189780E008C0DF01808591853B
:101390009C01F901309731F78EEC1FBF1F91089522
:1013A0006091F3057091F4058091F5059091F60533
:1013B00008956093F3057093F4058093F505909379
:1013C000F60508950F931F93CF93DF938091DD056A
:1013D000882309F447C08091F3059091F405A0910A
:1013E000F505B091F6050196A11DB11D8093F30599
:1013F0009093F405A093F505B093F605C091F70519
:10140000D091F8058E012CC08C819D81AE81BF8169
:101410000197A109B1098C839D83AE83BF83009797
:10142000A105B10511F08E0118C08091F7059091CA
:10143000F80528853985C817D90729F43093F805A8
:101440002093F70503C0F80131872087E881F981EF
:10145000309719F08A819B8119950884D985C02D10
:10146000209791F6DF91CF911F910F910895DF9210
:10147000EF92FF920F931F93DF93CF93CDB7DEB719
:101480002C970FB6F894DEBF0FBECDBF7B018C0149
:101490000E94D704FC01E114F1040105110511F4C7
:1014A00089EC26C0009711F488EC22C0DFB6F894CE
:1014B00081E08587FA83E98386E89AE09C838B83C1
:1014C000CE0101969E838D83EF82F88609871A8765
:1014D000CE010396908B87870E947E09882319F09E
:1014E000DFBE8DEC05C0DFBE80E00E94E90580E034
:1014F0002C960FB6F894DEBF0FBECDBFCF91DF9113
:101500001F910F91FF90EF90DF9008951F93FC01C2
:10151000009749F01FB7F894608171818BED95E0D9
:101520000E94E7041FBF1F910895EF92FF920F934F
:101530001F93FC01009749F16115710531F12115E7
:1015400031054105510509F1E114F10401051105C9
:10155000E1F0758364832683378340875187E28671
:10156000F3860487158711821082138212821686F1
:101570001786108A118A128A138A148A158A168A83
:10158000178A108E118E80E001C089EC1F910F9197
:10159000FF90EF9008951F93CF93DF93EC01009796
:1015A000B1F01FB7F894E881F98182E08687E8817D
:1015B000F981108A17868C819D81BF010E9449059F
:1015C000688179818BED95E00E94E7041FBFDF9170
:1015D000CF911F910895EF92FF920F931F93CF9396
:1015E000DF93EC01009709F458C06115710509F407
:1015F00054C02C813D818E859F85280F391F4E81D7
:101600005F81C9010E94E50FEE84FF840889198972
:101610002E813F8148855985E20EF31E041F151F58
:10162000EE86FF86088B198B8E899F89A88DB98DD0
:101630000196A11DB11D8E8B9F8BA88FB98F6A85D6
:101640007B858C859D850E947D0FE616F706080731
:10165000190720F01E861F86188A198ACE01029665
:101660000E942B05EC010097B1F08BED95E0BE01D7
:101670000E94E704882311F08CEC10C01E868F8531
:101680009889009731F00E94A309882311F08DEC0E
:1016900005C0188A1F8680E001C089ECDF91CF91D8
:1016A0001F910F91FF90EF9008956F927F928F920C
:1016B0009F92AF92BF92CF92DF92EF92FF920F93E1
:1016C0001F93DF93CF93CDB7DEB760970FB6F89433
:1016D000DEBF0FBECDBF6C014A015B01390100972F
:1016E00009F482C02115310509F47EC0EFB6F894E3
:1016F000FC0126893789408D518D82859385A4858B
:10170000B585281739074A075B0709F05FC0B7FCA2
:1017100059C00E94D7048C01009709F44FC0C6013C
:10172000B8010E94E704882309F044C081E0F80171
:10173000858781149104A104B10429F11A830983D6
:10174000DC82CB82CD82DE828BEC9AE098878F831D
:10175000CE0101969A8789878B869C86AD86BE8648
:10176000CE010796908B87870E947E09882371F0AF
:10177000C601B8010E944905F8011586108A17862E
:101780004DECF42E04C0F801108A1786FF24EFBE3A
:10179000FF2061F580E00E94E905F801F684FF2052
:1017A00029F51FB7F894C601B3010E94EB0AF82E81
:1017B0001FBF1CC0EFBE3CECF32E18C0EFBE28ECE0
:1017C000F22E14C0EFBE93E0F92E10C0C601B30193
:1017D0000E94EB0AF82EEFBE0E94D704892B31F04D
:1017E00080E00E94E90502C089ECF82E8F2D6096FA
:1017F0000FB6F894DEBF0FBECDBFCF91DF911F9122
:101800000F91FF90EF90DF90CF90BF90AF909F909F
:101810008F907F906F900895EF92FF920F931F9398
:10182000CF93DF93EC01009709F458C0611571055F
:1018300009F454C02C813D818A899B89280F391F66
:101840004E815F81CB01B9010E94E50FEA88FB88D8
:101850000C891D892E813F8148855985E20EF31E32
:10186000041F151FEA8AFB8A0C8B1D8B8E899F89AA
:10187000A88DB98D0197A109B1098E8B9F8BA88F77
:10188000B98F6A857B858C859D850E947D0FE616C4
:10189000F7060807190720F01A8A1B8A1C8A1D8A76
:1018A000CE010E942B05EC010097B1F08BED95E085
:1018B000BE010E94E704882311F08CEC10C01E8644
:1018C0008F859889009731F00E94A309882311F031
:1018D0008DEC05C0188A1F8680E001C089ECDF917D
:1018E000CF911F910F91FF90EF9008955F926F92AB
:1018F0007F928F929F92AF92BF92CF92DF92EF92A0
:10190000FF920F931F93DF93CF93CDB7DEB760970E
:101910000FB6F894DEBF0FBECDBF4C016A017B014C
:101920003901009709F482C02115310509F47EC000
:101930005FB6F894FC0186899789A08DB18D0097D8
:10194000A105B10509F064C077FD5EC00E94D7040F
:101950008C01009709F454C0A2E0AA2EB12CA80C67
:10196000B91CC501B8010E94E704882309F044C0EE
:1019700081E0F8018587C114D104E104F10429F163
:101980001A8309839C828B82BE82AD828BEC9AE0A3
:1019900098878F83CE0101969A878987CB86DC86CC
:1019A000ED86FE86CE010796908B87870E947E0982
:1019B000882371F0C501B8010E944905F801158618
:1019C000108A1786FDECFF2E04C0F801108A1786D6
:1019D000FF245FBEFF2061F580E00E94E905F80169
:1019E000F684FF2029F51FB7F894C401B3010E94C3
:1019F0000C0CF82E1FBF1CC05FBEECECFE2E18C0F6
:101A00005FBE78ECF72E14C05FBE63E0F62E10C008
:101A1000C401B9010E940C0CF82E5FBE0E94D704CD
:101A2000892B31F080E00E94E90502C059ECF52EC7
:101A30008F2D60960FB6F894DEBF0FBECDBFCF914D
:101A4000DF911F910F91FF90EF90DF90CF90BF90AB
:101A5000AF909F908F907F906F905F900895BF920E
:101A6000CF92DF92EF92FF920F931F93CF93DF936A
:101A7000009711F419EC3DC012E0E12EF12CE80EB4
:101A8000F91E6C0100E0BAECBB2E1FB7F894C70139
:101A90000E942B05EC01009731F4C6010E942B0532
:101AA000EC010097D9F0BE868BED95E0BE010E9457
:101AB000E704882319F01FBF1CEC12C08F8598899A
:101AC000009749F00E94A309882319F01FBF1DEC5D
:101AD00007C0188A1F861FBF01E0D7CF1FBF10E0C5
:101AE000013039F40E94D704892B19F080E00E945C
:101AF000E905812FDF91CF911F910F91FF90EF901A
:101B0000DF90CF90BF9008959C01A7E9BEE0E0E090
:101B1000F0E08D919C911197892B39F4EE0FFF1F06
:101B2000E956F14F31832083089531961296E431BE
:101B3000F10579F70895AF92BF92CF92DF92EF92BD
:101B4000FF920F931F93CF93DF93B82EEB017A018F
:101B50006901AFB6F8948091FB059091FC05019660
:101B600068EC70E00E949C0F8C019093FC058093C0
:101B7000FB050E943D042BE030E0029FF001039F33
:101B8000F00D129FF00D1124E350FA4F6083718322
:101B9000828393838091FB059091FC05829FF001E5
:101BA000839FF00D929FF00D1124E350FA4F848132
:101BB000882381F4B482D683C583F086E782D286F7
:101BC000C1868091F9059091FA0501969093FA05E6
:101BD0008093F905AFBEDF91CF911F910F91FF90D8
:101BE000EF90DF90CF90BF90AF9008959C01FB01E4
:101BF00082818A3F39F087E0B901AF0120E030E00F
:101C00000E949B0D08959C01FB0182818A3F39F05F
:101C100086E0B901AF0120E030E00E949B0D0895FD
:101C2000BC0188E040E050E020E030E00E949B0DE5
:101C30000895BC0185E040E050E020E030E00E94E3
:101C40009B0D0895FC0182818A3F41F084E0BF0131
:101C500040E050E020E030E00E949B0D0895FC0140
:101C600082818A3F41F083E0BF0140E050E020E004
:101C700030E00E949B0D0895CF93DF93FC01EB01B0
:101C800082819A818A3F39F09A3F81F5F093C00EA4
:101C9000E093BF0E06C09A3F21F07093C20E60938E
:101CA000C10E6091BF0E7091C00E4091C10E509157
:101CB000C20E6417750789F06115710549F1411568
:101CC000510531F181E020E030E00E949B0D8091D0
:101CD000C10E9091C20E0E942F0E1092C00E109253
:101CE000BF0E1092C20E1092C10E12C01092C00E02
:101CF0001092BF0E1092C20E1092C10E81E0BF0171
:101D0000AE0120E030E00E949B0DCE010E942F0E1C
:101D1000DF91CF910895FC0182818A3F41F082E0FA
:101D2000BF0140E050E020E030E00E949B0D0895AC
:101D3000CF93DF93EC0103C021960E946F0488814A
:101D40008823D1F78AE00E946F04DF91CF91089534
:101D5000AF92BF92CF92DF92EF92FF920F931F93B9
:101D6000DF93CF93CDB7DEB764970FB6F894DEBF9D
:101D70000FBECDBF82E2E82EF12CEC0EFD1EF70166
:101D8000C190D1907F015E010894A11CB11C9FC03D
:101D9000853209F097C0F6018181833641F48701CD
:101DA0000E5F1F4FF70180810E946F0464C085376A
:101DB000E1F4F6018281843609F062C087010E5F8A
:101DC0001F4FF70180819181B5014AE050E00E94E8
:101DD000EE0F750105C00894E11CF11C0E946F0410
:101DE000F70180818823B9F767C08837B9F4870184
:101DF0000E5F1F4FF70180819181B50140E150E0F6
:101E00000E94EE0F750105C00894E11CF11C0E94B0
:101E10006F04F70180818823B9F72DC08037C9F49A
:101E200087010C5F1F4FF70160817181828193816F
:101E3000A50120E130E00E940F10750105C0089453
:101E4000E11CF11C0E946F04F70180818823B9F71F
:101E500012C0833799F487010E5F1F4FF701E080AE
:101E6000F18005C00894E11CF11C0E946F04F70189
:101E700080818823B9F782E090E020C0853739F56A
:101E8000F60182818C3619F587010C5F1F4FF7012F
:101E90006081718182819381A5012AE030E00E94F6
:101EA0004310750105C00894E11CF11C0E946F04E9
:101EB000F70180818823B9F783E090E0C80ED91E2E
:101EC000780105C00894C11CD11C0E946F04F60162
:101ED0008081882309F05CCF64960FB6F894DEBF4A
:101EE0000FBECDBFCF91DF911F910F91FF90EF906B
:101EF000DF90CF90BF90AF900895629FD001739F05
:101F0000F001829FE00DF11D649FE00DF11D929F95
:101F1000F00D839FF00D749FF00D659FF00D9927D4
:101F2000729FB00DE11DF91F639FB00DE11DF91FF8
:101F3000BD01CF011124089597FB092E07260AD071
:101F400077FD04D02ED006D000201AF4709561954C
:101F50007F4F0895F6F7909581959F4F0895A1E2E0
:101F60001A2EAA1BBB1BFD010DC0AA1FBB1FEE1F13
:101F7000FF1FA217B307E407F50720F0A21BB30B5E
:101F8000E40BF50B661F771F881F991F1A9469F7DA
:101F900060957095809590959B01AC01BD01CF0136
:101FA0000895AA1BBB1B51E107C0AA1FBB1FA617A0
:101FB000B70710F0A61BB70B881F991F5A95A9F7F2
:101FC00080959095BC01CD010895FB01DC0102C014
:101FD00001900D9241505040D8F70895FB019F01A8
:101FE000E8944230C4F04532B4F44A3029F497FB07
:101FF0001EF4909581959F4F642F77270E94D10FF3
:10200000805D8A330CF0895D8193CB010097A1F745
:1020100016F45DE251931082C9010C94A712FA01E3
:10202000CF93FF93EF93223044F1253234F5C22F42
:10203000E894CA3049F497FB3EF4909580957095EA
:1020400061957F4F8F4F9F4F2C2F33274427552764
:10205000FF93EF930E94AF0FEF91FF91605D6A33A2
:102060000CF0695D6193B901CA0160507040804015
:10207000904051F716F4CDE2C19310828F919F9159
:10208000CF910C94A712FA01CF93FF93EF932230D4
:10209000CCF02532BCF4C22F2C2F332744275527F0
:1020A000FF93EF930E94AF0FEF91FF91605D6A3352
:1020B0000CF0695D6193B901CA01605070408040C5
:1020C000904051F710828F919F91CF910C94A7125D
:1020D000DF93CF93CDB7DEB7FE0136966191719154
:1020E000A091C50EB091C60E13968C91139788607F
:1020F00013968C938091C50E9091C60EAF010E94ED
:102100008B10E091C50EF091C60E2381277F2383AB
:10211000CF91DF9108952F923F924F925F926F92ED
:102120007F928F929F92AF92BF92CF92DF92EF9267
:10213000FF920F931F93DF93CF93CDB7DEB72B970B
:102140000FB6F894DEBF0FBECDBF3C012B015A0184
:10215000FC0117821682838181FD03C06FEF7FEF40
:10216000C6C19AE0892E1E010894211C311CF3017E
:102170002381F20123FD859123FF81912F01882383
:1021800009F4B2C1853239F423FD859123FF819191
:102190002F01853229F490E0B3010E94B712E7CFF6
:1021A000982FFF24EE249924FFE1FF15D0F09B32F5
:1021B00069F09C3228F4903259F0933291F40EC0B9
:1021C0009D3249F0903369F441E024C052E0F52A91
:1021D00084E0F82A28C098E0F92A25C0E0E1FE2A28
:1021E00022C0F7FC29C0892F80538A3070F4F6FE94
:1021F00005C0989C902C1124980E15C0E89CE02CEA
:102200001124E80EF0E2FF2A0EC09E3229F4F6FCFB
:102210006BC140E4F42A07C09C3619F450E8F52A53
:1022200002C0983649F4F20123FD959123FF919164
:102230002F01992309F0B8CF892F8554833018F0E6
:102240008052833038F444E050E0A40EB51E5FE3C2
:1022500059830FC0933631F0933779F0933509F0F5
:1022600056C020C0F5018081898342E050E0A40E71
:10227000B51E610101E010E012C0F501C080D180FF
:10228000F6FC03C06FEF7FEF02C0692D70E042E003
:1022900050E0A40EB51EC6010E949C128C015FE79F
:1022A000F52214C0F501C080D180F6FC03C06FEFA9
:1022B0007FEF02C0692D70E042E050E0A40EB51E31
:1022C000C6010E9491128C0150E8F52AF3FE07C066
:1022D0001AC080E290E0B3010E94B712EA948E2DFA
:1022E00090E008171907A8F30EC0F601F7FC8591D6
:1022F000F7FE81916F0190E0B3010E94B712E110E7
:10230000EA94015010400115110579F7EAC094369E
:1023100011F0993669F5F7FE08C0F5012081318189
:102320004281538184E090E00AC0F501808191816F
:102330009C01442737FD4095542F82E090E0A80E81
:10234000B91E9FE6F92257FF09C050954095309578
:1023500021953F4F4F4F5F4FE0E8FE2ACA01B90178
:10236000A1012AE030E00E94E312D82ED21840C02A
:10237000953729F41F2D1F7E2AE030E01DC01F2D48
:10238000197F9F3661F0903720F4983509F0ACC082
:102390000FC0903739F0983709F0A6C004C028E084
:1023A00030E00AC0106114FD146020E130E004C088
:1023B00014FD166020E132E017FF08C0F5016081CE
:1023C00071818281938144E050E008C0F5018081F1
:1023D0009181BC0180E090E042E050E0A40EB51E87
:1023E000A1010E94E312D82ED2188FE7F82EF12215
:1023F000F6FE0BC05EEFF522D91438F4F4FE07C0E8
:10240000F2FC05C08FEEF82202C01D2D01C0192D6F
:10241000F4FE0DC0FE01ED0DF11D8081803319F435
:1024200099EEF92208C01F5FF2FE05C003C08F2D90
:10243000867809F01F5F0F2DF3FC14C0F0FE0FC06B
:102440001E1510F09D2C0BC09D2C9E0C911A1E2D5C
:1024500006C080E290E0B3010E94B7121F5F1E1514
:10246000C0F304C01E1510F4E11A01C0EE2404FFED
:102470000FC080E390E0B3010E94B71202FF1DC0BD
:1024800001FD03C088E790E00EC088E590E00BC036
:10249000802F867891F001FF02C08BE201C080E2BC
:1024A000F7FC8DE290E0B3010E94B71206C080E312
:1024B00090E0B3010E94B7129A94D914C0F3DA9451
:1024C000F101ED0DF11D808190E0B3010E94B71282
:1024D000DD20A9F706C080E290E0B3010E94B712A8
:1024E000EA94EE20C1F743CEF30166817781CB01F8
:1024F0002B960FB6F894DEBF0FBECDBFCF91DF9104
:102500001F910F91FF90EF90DF90CF90BF90AF9011
:102510009F908F907F906F905F904F903F902F9003
:102520000895FC010590615070400110D8F7809526
:1025300090958E0F9F1F0895FC016150704001908F
:102540000110D8F7809590958E0F9F1F0895DC019C
:10255000FC01672F71917723E1F7329704C07C91DA
:102560006D9370836291AE17BF07C8F308950F9300
:102570001F93CF93DF938C01EB018B8181FF1BC0F5
:1025800082FF0DC02E813F818C819D8128173907E4
:1025900064F4E881F9810193F983E88306C0E88552
:1025A000F985802F1995892B31F48E819F810196B1
:1025B0009F838E8302C00FEF1FEFC801DF91CF9181
:1025C0001F910F910895FA01AA27283051F1203167
:1025D00081F1E8946F936E7F6E5F7F4F8F4F9F4FB7
:1025E000AF4FB1E03ED0B4E03CD0670F781F891FF9
:1025F0009A1FA11D680F791F8A1F911DA11D6A0FC7
:10260000711D811D911DA11D20D009F468943F9179
:102610002AE0269F11243019305D3193DEF6CF0178
:102620000895462F4770405D4193B3E00FD0C9F73E
:10263000F6CF462F4F70405D4A3318F0495D31FDAB
:102640004052419302D0A9F7EACFB4E0A6959795FE
:10265000879577956795BA95C9F7009761057105D4
:1026600008959B01AC010A2E06945795479537951E
:102670002795BA95C9F7620F731F841F951FA01D78
:062680000895F894FFCF5D
:0E2686000000000200000000610300000000E0
:00000001FF
