:100000000C94A8010C94C9010C94C9010C94C90169
:100010000C94C9010C94C9010C94C9010C94C90138
:100020000C94C9010C94C9010C94C9010C94C90128
:100030000C94C9010C94C9010C94C9010C94C90118
:100040000C94C9010C94F8030C94C9010C94C901D7
:100050000C94C9010C94C9010C94C9010C94C901F8
:100060000C94C9010C94C9010C94C9010C94C901E8
:100070000C94C9010C94C9010C94C9010C94C901D8
:100080000C94C9010C94C9010C94C9010C94DF04AF
:100090000C94C9010C94C9010C94C9010C94C901B8
:1000A0000C94C9010C94C9010C94C9010C94C901A8
:1000B0000C94C9010C94C9010C94C9010C94C90198
:1000C0000C94C9010C94C9010C94C9010C94C90188
:1000D0000C94C9010C94C9010C94C9010C94C90178
:1000E0000C94C9014661696C65642073656D3220AA
:1000F00064656C6574650A004E6F74696679206684
:1001000061696C20282564290A004661696C656470
:100110002073656D312064656C6574650A00466105
:10012000696C65642074696D65722064656C6179C1
:100130000A004572726F72206372656174696E673E
:1001400020746573742074687265616420320A00DB
:100150004572726F72206372656174696E67207494
:100160006573742073656D6170686F726520320A03
:10017000004572726F72206372656174696E6720E8
:10018000746573742073656D6170686F726520317A
:100190000A004661696C65642073656D3220646590
:1001A0006C6574650A004E6F7469667920666169D2
:1001B0006C20282564290A004661696C65642073F7
:1001C000656D312064656C6574650A004661696C13
:1001D00065642074696D65722064656C61790A00DC
:1001E0004572726F72206372656174696E67207404
:1001F0006573742074687265616420310A00457209
:10020000726F72206372656174696E6720746573C2
:10021000742073656D6170686F726520320A0045E5
:1002200072726F72206372656174696E67207465A3
:1002300073742073656D6170686F726520310A0098
:100240004261642073656D6170686F7265206465DA
:100250006C6574696F6E20636865636B730A004236
:1002600061642073656D6170686F7265206372658B
:100270006174696F6E20636865636B730A00457211
:10028000726F72206372656174696E672073656D49
:100290006170686F72650A004572726F72206465E2
:1002A0006C6574696E672073656D6170686F7265E7
:1002B0000A004572726F7220706F7374696E6720E6
:1002C00073656D32206F6E2077616B6575700A0003
:1002D00054657374322074687265616420776F6B43
:1002E0006520776974686F75742064656C657469DE
:1002F0006F6E20282564290A004572726F72207083
:100300006F7374696E672073656D32206F6E20772E
:10031000616B65757020282564290A005465737423
:10032000312074687265616420776F6B652077692E
:1003300074686F75742064656C6574696F6E2028CD
:100340002564290A00506173730A00476F0A000090
:1003500011241FBECFEFD1E2DEBFCDBF00E00CBF46
:1003600012E0A0E0B2E0E2E3F8E200E00BBF02C07E
:1003700007900D92AE30B107D9F71DE0AEE0B2E0C4
:1003800001C01D92AA38B107E1F70E947E040C94C7
:1003900017140C94EE038F92AF92BF92CF92DF921C
:1003A000EF92FF920F931F93CF93DF93C0E0D0E0C3
:1003B0008EE092E060E00E94A107882389F48EE03D
:1003C00092E00E94F6078823D1F00F920F9288E9FD
:1003D00092E0ADB7BEB712969C938E93119708C06A
:1003E0000F920F928EE792E0EDB7FEB79283818372
:1003F0000E943E11C1E0D0E00F900F9007C02196FF
:10040000F3E0C83EDF07A1F6C0E0D0E080E090E076
:1004100060E00E94A107882379F40F920F928FE584
:1004200092E0ADB7BEB712969C938E9311970E943F
:100430003E1121960F900F9080E090E00E94F60709
:10044000882369F40F920F9280E492E0EDB7FEB733
:10045000928381830E943E1121960F900F908EE02F
:1004600092E060E00E94A107882329F00F920F928A
:100470008FE192E028C081E192E060E00E94A10754
:10048000882329F00F920F928EEF91E067C084E1EC
:1004900092E060E14CE853E000E010E020E030E062
:1004A000A6E3EA2EA2E0FA2EF0E8AF2EB12CC12C82
:1004B000D12C882483940E940907882359F00F9235
:1004C0000F9280EE91E0ADB7BEB712969C938E93DB
:1004D000119748C064E670E080E090E00E940D0B48
:1004E000882329F00F920F928CEC91E037C08EE0B8
:1004F00092E00E94F607882329F00F920F9288EB72
:1005000091E0E1CF81E192E044EF51E060E070E002
:100510000E943C08282F8823B9F000D00F92EDB735
:10052000FEB7319686EA91E0ADB7BEB712969C93BE
:100530008E931197228313820E943E1121960F9071
:100540000F900F900F9013C081E192E00E94F60788
:10055000882369F00F920F9282E991E0EDB7FEB720
:10056000928381830E943E1121960F900F908EE01E
:1005700092E060E00E94A107882329F00F920F9279
:1005800081E791E028C081E192E060E00E94A1074C
:10059000882329F00F920F9280E591E067C085E2F1
:1005A00092E060E142E553E000E010E020E030E05E
:1005B000E6EBEE2EE2E0FE2E70E8A72EB12CC12C69
:1005C000D12C882483940E940907882359F00F9224
:1005D0000F9282E391E0ADB7BEB712969C938E93D3
:1005E000119748C064E670E080E090E00E940D0B37
:1005F000882329F00F920F928EE191E037C08EE0B0
:1006000092E00E94F607882329F00F920F928AE069
:1006100091E0E1CF81E192E044EF51E060E070E0F1
:100620000E943C08282F8823B9F000D00F92EDB724
:10063000FEB7319688EF90E0ADB7BEB712969C93A7
:100640008E931197228313820E943E1121960F9060
:100650000F900F900F9013C081E192E00E94F60777
:10066000882369F00F920F9284EE90E0EDB7FEB709
:10067000928381830E943E1121960F900F909E01DC
:10068000442737FD4095542FB901CA01DF91CF911E
:100690001F910F91FF90EF90DF90CF90BF90AF90A0
:1006A0008F9008958EE092E044EF51E060E070E0BA
:1006B0000E943C08282F8A3CB1F000D00F92EDB781
:1006C000FEB7319680ED92E0ADB7BEB712969C931F
:1006D0008E931197228313820E943E110F900F90E8
:1006E0000F900F9012C081E192E00E94B30788231F
:1006F00061F00F920F9282EB92E0EDB7FEB792831A
:1007000081830E943E110F900F9064E670E080E0BC
:1007100090E00E940D0BF9CF8EE092E040E050E0B7
:1007200060E070E00E943C08282F8A3C41F000D035
:100730000F92EDB7FEB731968CE193E00EC081E1E8
:1007400092E00E94B307282F8823A9F000D00F92CF
:10075000EDB7FEB7319689EF92E0ADB7BEB712960E
:100760009C938E931197228313820E943E110F90C7
:100770000F900F900F9064E670E080E090E00E9490
:100780000D0BF9CFDC01FB0185E294E080839293AD
:100790001292129212921292129212921292129239
:1007A0001292129212921292129212921292129229
:1007B000129212921292129212923197ED93FC932E
:1007C000089581E792E0909389008093880082E009
:1007D00080936F008CE08093810008951F920F92A8
:1007E0000FB60F9211240F900FBE0F901F90189507
:1007F0001F920F920FB60F920BB60F9211242F93E8
:100800003F934F935F936F937F938F939F93AF9398
:10081000BF93EF93FF930E94A3050E94B80A81E063
:100820000E94FC06FF91EF91BF91AF919F918F9134
:100830007F916F915F914F913F912F910F900BBEE0
:100840000F900FBE0F901F9018950E94AD05FC01F0
:100850007894009759F0238134812115310531F0C6
:100860006581768187819085F901199508951F9397
:10087000CF93DF93182FEB0186E393E040E050E045
:1008800060E070E00E94A209882381F41A3021F40C
:100890008DE0BE010E9437048091C00085FFFCCF2F
:1008A0001093C60086E393E00E94270980E090E061
:1008B000DF91CF911F9108959B01AC0184E0220F3D
:1008C000331F441F551F8A95D1F760E074E284EF0F
:1008D00090E00E94851021502093C40088E180930D
:1008E000C10086E393E00E94460A882319F420E0C1
:1008F00030E002C02FEF3FEFC90108958F92AF9211
:10090000BF92CF92DF92EF92FF920F931F9387E5F2
:1009100094E09EBF8DBFCF9740E850E060E070E06C
:1009200020E00E9475078823E1F40E94E1038BE335
:1009300093E060E142EB54E000E010E020E030E0C2
:10094000ECE4EE2EE3E0FE2E7CECA72EB12CC12CC5
:10095000D12C882483940E940907882311F40E94D3
:100960008306FFCF8FEF84B985B960E875E280E038
:1009700090E00E945C0480E092E09093870D809369
:10098000860D0F920F928BE493E0EDB7FEB7928342
:1009900081830E943E1185E493E0EDB7FEB7928318
:1009A00081830E943E110F900F9085B1805885B9C8
:1009B00064E670E080E090E00E940D0BF6CF1F929D
:1009C0000F920FB60F9211248F939F93AF93BF9303
:1009D0008091980490919904A0919A04B0919B04FD
:1009E0000196A11DB11D8093980490939904A09342
:1009F0009A04B0939B041092950010929400BF91BA
:100A0000AF919F918F910F900FBE0F901F901895EF
:100A100081E080937100E1E9F0E082E080838081F1
:100A2000886080830895EF92FF920F931F93E09068
:100A30009400F090950000E010E0609198047091AF
:100A4000990480919A0490919B042FEF3FEF40E02E
:100A500050E00E945310E60EF71E081F191F16954E
:100A60000795F794E794B701C8011F910F91FF9084
:100A7000EF9008959093CD008093CC0088E180930F
:100A8000C90086E08093CA000895982F8091C8001D
:100A900085FFFCCF9093CE0008952F923F924F9206
:100AA0005F926F927F928F929F92AF92BF92CF92FE
:100AB000DF92EF92FF920F931F93CF93DF930BB6CA
:100AC0000F920CB60F920DB71EB7C82FD92F0883FF
:100AD0001983C62FD72F088119810DBF1EBF0F9014
:100AE0000CB60F900BB6DF91CF911F910F91FF9035
:100AF000EF90DF90CF90BF90AF909F908F907F90BE
:100B00006F905F904F903F902F900895C82FD92FEE
:100B1000088119810DBF1EBF0F900CB60F900BB648
:100B2000DF91CF911F910F91FF90EF90DF90CF90C9
:100B3000BF90AF909F908F907F906F905F904F90FD
:100B40003F902F9018958091A1049091A204019656
:100B50009093A2048093A10408958091A1049091A0
:100B6000A204892B19F020E030E004C020919F04FA
:100B70003091A004C9010895FFCF0F931F93CF9325
:100B8000DF938C01DB010097A1F16115710589F1FB
:100B9000EC0148815981EA01FA01309731F09281E4
:100BA00012968C9112978917F0F4E417F50761F407
:100BB000E801B983A8831A961C921E9219971C9675
:100BC000FC93EE931B970AC01A96DC93CE93199769
:100BD0001C96FC93EE931B97BC87AB87309759F01C
:100BE000B287A18708C0EF01838594859C01F90134
:100BF000D4CF89EC01C080E0DF91CF911F910F919C
:100C00000895CF93DF93EC01009719F4E0E0F0E052
:100C100012C0E881F981309771F0A385B485B9835A
:100C2000A883109721F01A961C921E92199712868B
:100C3000118614861386CF01DF91CF910895CF934B
:100C4000DF93AC01DB010097A9F1EC018881998168
:100C5000009781F1EC01FC01EA17FB0719F51B96DF
:100C6000ED91FC911C97A817B90741F4EA01F983AB
:100C7000E883309769F0128611860AC0FC87EB87FB
:100C80001B96ED91FC911C97309711F0D287C1878C
:100C90001C961C921E921B971A961C921E921997D4
:100CA000BD010AC023853485EF012115310511F0FE
:100CB000F901D2CF60E070E0CB01DF91CF910895D0
:100CC000CF93DF93EC010097C1F0A881B981109711
:100CD000B1F012968C911297681778F01B96ED91EF
:100CE000FC911C97F983E883309749F012861186AE
:100CF0001C961C921E921B9702C0A0E0B0E0CD0192
:100D0000DF91CF91089581E080939E048CE994E077
:100D10006FEF0E946006009731F09093A0048093DB
:100D20009F040E94860508950F931F93CF93DF932E
:100D3000EC018B0186179707E1F07093A004609394
:100D40009F048091560D9091570D892B19F4CE0177
:100D50000E94050FCE01B8010E94120F8A818A3FBE
:100D600021F01093570D0093560DCE01B8010E944B
:100D70004D051D86DF91CF911F910F910895FF9230
:100D80000F931F93CF93DF93982F80919E04882316
:100D900069F1FFB6F894C0919F04D091A0048D85AD
:100DA000813039F48CE994E00E940106BC01CE0147
:100DB0001AC06A81913049F06623B9F070E0615041
:100DC00070408FEF6F3F780781F08CE994E00E94CC
:100DD00060068C01009749F08CE994E0BE010E9406
:100DE000BD05CE01B8010E949406FFBEDF91CF91F0
:100DF0001F910F91FF9008952091A1043091A204BA
:100E0000215030403093A2042093A1040E94BF06D9
:100E100008958F929F92AF92BF92CF92DF92EF92FE
:100E2000FF920F931F93DF93CF93CDB7DEB74C01A3
:100E3000009709F44CC04115510509F448C0E1146C
:100E4000F10409F444C0A114B104C104D10409F4AB
:100E50003EC0FC01158662831286118614861386B5
:100E6000108A17865483438305831683278330872C
:100E7000B501615070406E0D7F1D0E94C2031FB707
:100E8000F8948CE994E0B4010E94BD05882319F020
:100E90001FBF8CEC1DC01FBF80919E04813079F470
:100EA0008091A1049091A204892B49F480919F0420
:100EB0009091A004892B19F080E00E94BF06C40124
:100EC0000E945A0EC4010E94610F80E001C089ECAB
:100ED000CF91DF911F910F91FF90EF90DF90CF9016
:100EE000BF90AF909F908F9008958F92AF92BF92D6
:100EF000CF92DF92EF92FF920F931F937C015A01E2
:100F00006B01822E1092A00410929F0410929D04F7
:100F100010929C0410929E0483EA94E06EEF4CEBD6
:100F200055E000E010E020E030E00E9409071F914A
:100F30000F91FF90EF90DF90CF90BF90AF908F9088
:100F40000895FC01009711F489EC089562831182E1
:100F5000108280E00895FC01009711F489EC089557
:100F6000628380E008950F931F93CF93DF93FC017A
:100F7000009711F419EC34C00FB7F8948081918177
:100F8000892B29F1CF010E940106EC018CE994E044
:100F9000BE010E94BD05882319F00FBF1CEC20C0C4
:100FA0001E868F859889009731F00E94790A8823E0
:100FB00011F01DEC03C0188A1F8610E00FBF0E94BD
:100FC000AD05892B69F080E00E94BF0609C08281CF
:100FD0008F3F11F41BEC03C08F5F828310E00FBFC3
:100FE000812FDF91CF911F910F910895DF92EF92A2
:100FF000FF920F931F93CF93DF93009711F419EC97
:1010000032C07C0100E08AECD82E1FB7F894C701EB
:101010000E940106EC010097D9F0DE868CE994E08D
:10102000BE010E94BD05882319F01FBF1CEC12C031
:101030008F859889009749F00E94790A882319F0D2
:101040001FBF1DEC07C0188A1F861FBF01E0DDCF40
:101050001FBF10E0013039F40E94AD05892B19F053
:1010600080E00E94BF06812FDF91CF911F910F91E9
:10107000FF90EF90DF9008959F92AF92BF92CF9232
:10108000DF92EF92FF920F931F93DF93CF93CDB731
:10109000DEB72E970FB6F894DEBF0FBECDBF7C0132
:1010A0005A016B01009711F489EC59C09FB6F8946E
:1010B000FC018281882309F04DC077FD48C00E9461
:1010C000AD058C01009709F43FC0C701B8010E942B
:1010D000BD05882319F09FBE8CEC41C081E0F8016A
:1010E0008587A114B104C104D10411F11A830983C5
:1010F000FC82EB8281EC98E09E838D83CE01019689
:1011000098878F83A986BA86CB86DC86CE01059622
:10111000908B87870E94540A882371F0C701B80119
:101120000E941F06F8011586108A17868DEC04C0F0
:10113000F801108A178680E09FBE882381F40E9400
:10114000BF06F80186850BC09FBE88EC08C09FBE15
:1011500083E005C08150F70182839FBE80E02E9618
:101160000FB6F894DEBF0FBECDBFCF91DF911F91B8
:101170000F91FF90EF90DF90CF90BF90AF909F9036
:1011800008951F93CF93DF93EC010097B1F01FB741
:10119000F894E881F98182E08687E881F981108AF4
:1011A00017868A819B81BF010E941F066881798111
:1011B0008CE994E00E94BD051FBFDF91CF911F9184
:1011C0000895DF92EF92FF920F931F93CF93DF93D7
:1011D000009711F419EC32C07C0100E08AECD82EA3
:1011E0001FB7F894C7010E940106EC010097D9F0DF
:1011F000DE868CE994E0BE010E94BD05882319F0CB
:101200001FBF1CEC12C08F859889009749F00E947F
:10121000790A882319F01FBF1DEC07C0188A1F86A2
:101220001FBF01E0DDCF1FBF10E0013039F40E9485
:10123000AD05892B19F080E00E94BF06812FDF9158
:10124000CF911F910F91FF90EF90DF900895CF9273
:10125000DF92EF92FF920F931F93CF93DF937C0166
:10126000009711F419EC44C00E94AD056C010FB752
:10127000F894F701828193818C159D0519F00FBFB9
:101280001FEC32C0F701848181508483882351F59B
:101290001382128280819181892B21F1C7010E94E2
:1012A0000106EC018CE994E0BE010E94BD05882393
:1012B00019F00FBF1CEC18C01E86F701D383C28340
:1012C0008F859889009731F00E94790A882311F060
:1012D0001DEC03C0188A1F8610E00FBF80E00E943B
:1012E000BF0602C00FBF10E0C701B6010E94CC0EBE
:1012F000812FDF91CF911F910F91FF90EF90DF90A1
:10130000CF9008951F93CF93DF93EC010097B1F036
:101310001FB7F894E881F98182E08687E881F98136
:10132000108A17868A819B81BF010E941F066881EF
:1013300079818CE994E00E94BD051FBFDF91CF91B8
:101340001F9108958F929F92AF92BF92CF92DF929A
:10135000EF92FF920F931F93DF93CF93CDB7DEB73A
:101360002E970FB6F894DEBF0FBECDBF7C014A01A9
:101370005B01009711F419EC75C00E94AD056C017A
:101380000FB7F894009719F40FBF18EC67C0F70176
:1013900082819381009709F44FC08C159D0509F453
:1013A0004BC0B7FC46C0C701B6010E94BD058823EB
:1013B00019F00FBF1CEC52C081E0F6018587811443
:1013C0009104A104B10411F1DA82C982FC82EB829A
:1013D00082E899E09E838D83CE01019698878F8362
:1013E00089869A86AB86BC86CE010596908B8787C8
:1013F0000E94540A882369F0C701B6010E941F06A3
:10140000F6011586108A17861DEC04C0F601108AB5
:10141000178610E00FBF112309F580E00E94BF0678
:10142000F60116851123D1F4F70184818F5F84833F
:1014300015C00FBF13E012C0F70184818F3F11F474
:101440001BEC0BC08F5FF701848382819381892B12
:1014500019F4F701D382C28210E00FBFC701B601B1
:101460000E94D90E812F2E960FB6F894DEBF0FBEC4
:10147000CDBFCF91DF911F910F91FF90EF90DF9043
:10148000CF90BF90AF909F908F900895FC010097F0
:1014900011F489EC08951382128214821182108251
:1014A0000E94EF0E80E00895FC01009701F1808119
:1014B0009181892BE1F084819581A681B781009784
:1014C000A105B105A1F02FB7F8948091B8049091CF
:1014D000B904009719F41186108602C0918780879D
:1014E000F093B904E093B8042FBF80E0089589EC2D
:1014F00008951F93BC01009711F489EC25C01FB714
:10150000F8944091B8045091B904DA01FA0118C076
:10151000E617F70781F480859185E417F50729F42C
:101520009093B9048093B80404C019969C938E9349
:10153000189780E008C0DF01808591859C01F90142
:10154000309731F78EEC1FBF1F9108956091B4045E
:101550007091B5048091B6049091B704089560939A
:10156000B4047093B5048093B6049093B7040895BF
:101570000F931F93CF93DF9380919E04882309F4E8
:1015800047C08091B4049091B504A091B604B09185
:10159000B7040196A11DB11D8093B4049093B504C6
:1015A000A093B604B093B704C091B804D091B90425
:1015B0008E012CC08C819D81AE81BF810197A109D4
:1015C000B1098C839D83AE83BF830097A105B105CC
:1015D00011F08E0118C08091B8049091B90428854B
:1015E0003985C817D90729F43093B9042093B80472
:1015F00003C0F80131872087E881F981309719F01D
:101600008A819B8119950884D985C02D209791F6F0
:10161000DF91CF911F910F910895DF92EF92FF928A
:101620000F931F93DF93CF93CDB7DEB72C970FB6F1
:10163000F894DEBF0FBECDBF7B018C010E94AD05CB
:10164000FC01E114F1040105110511F489EC26C037
:10165000009711F488EC22C0DFB6F89481E085870A
:10166000FA83E9838CE59BE09C838B83CE01019612
:101670009E838D83EF82F88609871A87CE010396B1
:10168000908B87870E94540A882319F0DFBE8DEC67
:1016900005C0DFBE80E00E94BF0680E02C960FB63A
:1016A000F894DEBF0FBECDBFCF91DF911F910F9198
:1016B000FF90EF90DF9008951F93FC01009749F091
:1016C0001FB7F894608171818CE994E00E94BD0598
:1016D0001FBF1F910895EF92FF920F931F93FC017C
:1016E000009749F16115710531F121153105410569
:1016F000510509F1E114F10401051105E1F07583CB
:1017000064832683378340875187E286F386048784
:101710001587118210821382128216861786108A0C
:10172000118A128A138A148A158A168A178A108EC9
:10173000118E80E001C089EC1F910F91FF90EF9016
:1017400008951F93CF93DF93EC010097B1F01FB77B
:10175000F894E881F98182E08687E881F981108A2E
:1017600017868C819D81BF010E941F066881798147
:101770008CE994E00E94BD051FBFDF91CF911F91BE
:101780000895EF92FF920F931F93CF93DF93EC0195
:10179000009709F458C06115710509F454C02C81F3
:1017A0003D818E859F85280F391F4E815F81C9013C
:1017B0000E94BB10EE84FF84088919892E813F8125
:1017C00048855985E20EF31E041F151FEE86FF861D
:1017D000088B198B8E899F89A88DB98D0196A11DC3
:1017E000B11D8E8B9F8BA88FB98F6A857B858C8569
:1017F0009D850E945310E616F7060807190720F08A
:101800001E861F86188A198ACE0102960E9401063A
:10181000EC010097B1F08CE994E0BE010E94BD0597
:10182000882311F08CEC10C01E868F859889009754
:1018300031F00E94790A882311F08DEC05C0188AD6
:101840001F8680E001C089ECDF91CF911F910F913D
:10185000FF90EF9008956F927F928F929F92AF9238
:10186000BF92CF92DF92EF92FF920F931F93DF937D
:10187000CF93CDB7DEB760970FB6F894DEBF0FBE3B
:10188000CDBF6C014A015B013901009709F482C0A8
:101890002115310509F47EC0EFB6F894FC012689C4
:1018A0003789408D518D82859385A485B58528170C
:1018B00039074A075B0709F05FC0B7FC59C00E94AF
:1018C000AD058C01009709F44FC0C601B8010E9414
:1018D000BD05882309F044C081E0F80185878114A3
:1018E0009104A104B10429F11A830983DC82CB821B
:1018F000CD82DE8281EA9BE098878F83CE010196BC
:101900009A8789878B869C86AD86BE86CE01079690
:10191000908B87870E94540A882371F0C601B80112
:101920000E941F06F8011586108A17864DECF42ECA
:1019300004C0F801108A1786FF24EFBEFF2061F56E
:1019400080E00E94BF06F801F684FF2029F51FB74A
:10195000F894C601B3010E94C10BF82E1FBF1CC032
:10196000EFBE3CECF32E18C0EFBE28ECF22E14C0F4
:10197000EFBE93E0F92E10C0C601B3010E94C10B67
:10198000F82EEFBE0E94AD05892B31F080E00E9459
:10199000BF0602C089ECF82E8F2D60960FB6F89422
:1019A000DEBF0FBECDBFCF91DF911F910F91FF9092
:1019B000EF90DF90CF90BF90AF909F908F907F90EF
:1019C0006F900895EF92FF920F931F93CF93DF9341
:1019D000EC01009709F458C06115710509F454C071
:1019E0002C813D818A899B89280F391F4E815F8117
:1019F000CB01B9010E94BB10EA88FB880C891D89C4
:101A00002E813F8148855985E20EF31E041F151F64
:101A1000EA8AFB8A0C8B1D8B8E899F89A88DB98DD4
:101A20000197A109B1098E8B9F8BA88FB98F6A8509
:101A30007B858C859D850E945310E616F706080766
:101A4000190720F01A8A1B8A1C8A1D8ACE010E945F
:101A50000106EC010097B1F08CE994E0BE010E9410
:101A6000BD05882311F08CEC10C01E868F859889E7
:101A7000009731F00E94790A882311F08DEC05C09F
:101A8000188A1F8680E001C089ECDF91CF911F91F9
:101A90000F91FF90EF9008955F926F927F928F92D7
:101AA0009F92AF92BF92CF92DF92EF92FF920F93ED
:101AB0001F93DF93CF93CDB7DEB760970FB6F8943F
:101AC000DEBF0FBECDBF4C016A017B01390100971B
:101AD00009F482C02115310509F47EC05FB6F8947F
:101AE000FC0186899789A08DB18D0097A105B1056C
:101AF00009F064C077FD5EC00E94AD058C010097BF
:101B000009F454C0A2E0AA2EB12CA80CB91CC5013E
:101B1000B8010E94BD05882309F044C081E0F801A6
:101B20008587C114D104E104F10429F11A830983E2
:101B30009C828B82BE82AD8281EA9BE098878F83F4
:101B4000CE0101969A878987CB86DC86ED86FE8654
:101B5000CE010796908B87870E94540A882371F0E4
:101B6000C501B8010E941F06F8011586108A178664
:101B7000FDECFF2E04C0F801108A1786FF245FBE1B
:101B8000FF2061F580E00E94BF06F801F684FF2087
:101B900029F51FB7F894C401B3010E94E20CF82E96
:101BA0001FBF1CC05FBEECECFE2E18C05FBE78EC01
:101BB000F72E14C05FBE63E0F62E10C0C401B90159
:101BC0000E94E20CF82E5FBE0E94AD05892B31F019
:101BD00080E00E94BF0602C059ECF52E8F2D609662
:101BE0000FB6F894DEBF0FBECDBFCF91DF911F912E
:101BF0000F91FF90EF90DF90CF90BF90AF909F90AC
:101C00008F907F906F905F900895BF92CF92DF92F8
:101C1000EF92FF920F931F93CF93DF93009711F4EE
:101C200019EC3DC012E0E12EF12CE80EF91E6C011A
:101C300000E0BAECBB2E1FB7F894C7010E94010662
:101C4000EC01009731F4C6010E940106EC010097F7
:101C5000D9F0BE868CE994E0BE010E94BD058823C0
:101C600019F01FBF1CEC12C08F859889009749F0AE
:101C70000E94790A882319F01FBF1DEC07C0188A3B
:101C80001F861FBF01E0D7CF1FBF10E0013039F41E
:101C90000E94AD05892B19F080E00E94BF06812FBC
:101CA000DF91CF911F910F91FF90EF90DF90CF9038
:101CB000BF9008959C01A8E5BDE0E0E0F0E08D91C3
:101CC0009C911197892B39F4EE0FFF1FE85AF24FC0
:101CD00031832083089531961296E431F10579F726
:101CE0000895AF92BF92CF92DF92EF92FF920F933F
:101CF0001F93CF93DF93B82EEB017A016901AFB642
:101D0000F8948091BC049091BD04019668EC70E059
:101D10000E9472108C019093BD048093BC040E94B9
:101D200013052BE030E0029FF001039FF00D129F9E
:101D3000F00D1124E254FB4F6083718382839383FF
:101D40008091BC049091BD04829FF001839FF00DAF
:101D5000929FF00D1124E254FB4F8481882381F47B
:101D6000B482D683C583F086E782D286C18680910D
:101D7000BA049091BB0401969093BB048093BA047B
:101D8000AFBEDF91CF911F910F91FF90EF90DF9049
:101D9000CF90BF90AF9008959C01FB0182818A3F54
:101DA00039F087E0B901AF0120E030E00E94710E08
:101DB00008959C01FB0182818A3F39F086E0B901D8
:101DC000AF0120E030E00E94710E0895BC0188E070
:101DD00040E050E020E030E00E94710E0895BC0128
:101DE00085E040E050E020E030E00E94710E089570
:101DF000FC0182818A3F41F084E0BF0140E050E075
:101E000020E030E00E94710E0895FC0182818A3F3B
:101E100041F083E0BF0140E050E020E030E00E946C
:101E2000710E0895CF93DF93FC01EB0182819A81BB
:101E30008A3F39F09A3F81F5F093810DE093800D50
:101E400006C09A3F21F07093830D6093820D6091DC
:101E5000800D7091810D4091820D5091830D64171A
:101E6000750789F06115710549F14115510531F189
:101E700081E020E030E00E94710E8091820D90910F
:101E8000830D0E94050F1092810D1092800D10920B
:101E9000830D1092820D12C01092810D1092800D50
:101EA0001092830D1092820D81E0BF01AE0120E0FF
:101EB00030E00E94710ECE010E94050FDF91CF919C
:101EC0000895FC0182818A3F41F082E0BF0140E039
:101ED00050E020E030E00E94710E0895CF93DF9330
:101EE000EC0103C021960E94450588818823D1F723
:101EF0008AE00E944505DF91CF910895AF92BF928D
:101F0000CF92DF92EF92FF920F931F93DF93CF93C5
:101F1000CDB7DEB764970FB6F894DEBF0FBECDBF66
:101F200082E2E82EF12CEC0EFD1EF701C190D1905B
:101F30007F015E010894A11CB11C9FC0853209F08D
:101F400097C0F6018181833641F487010E5F1F4FF0
:101F5000F70180810E94450564C08537E1F4F601F0
:101F60008281843609F062C087010E5F1F4FF7013E
:101F700080819181B5014AE050E00E94C410750152
:101F800005C00894E11CF11C0E944505F701808101
:101F90008823B9F767C08837B9F487010E5F1F4FF0
:101FA000F70180819181B50140E150E00E94C410A9
:101FB000750105C00894E11CF11C0E944505F7015C
:101FC00080818823B9F72DC08037C9F487010C5F61
:101FD0001F4FF7016081718182819381A50120E10A
:101FE00030E00E94E510750105C00894E11CF11C69
:101FF0000E944505F70180818823B9F712C0833715
:1020000099F487010E5F1F4FF701E080F18005C052
:102010000894E11CF11C0E944505F701808188238A
:10202000B9F782E090E020C0853739F5F60182816A
:102030008C3619F587010C5F1F4FF70160817181A4
:1020400082819381A5012AE030E00E941911750177
:1020500005C00894E11CF11C0E944505F701808130
:102060008823B9F783E090E0C80ED91E780105C037
:102070000894C11CD11C0E944505F601808188236B
:1020800009F05CCF64960FB6F894DEBF0FBECDBFEB
:10209000CF91DF911F910F91FF90EF90DF90CF9044
:1020A000BF90AF900895629FD001739FF001829F0F
:1020B000E00DF11D649FE00DF11D929FF00D839FD7
:1020C000F00D749FF00D659FF00D9927729FB00D74
:1020D000E11DF91F639FB00DE11DF91FBD01CF0187
:1020E0001124089597FB092E07260AD077FD04D006
:1020F0002ED006D000201AF4709561957F4F089578
:10210000F6F7909581959F4F0895A1E21A2EAA1B8C
:10211000BB1BFD010DC0AA1FBB1FEE1FFF1FA21797
:10212000B307E407F50720F0A21BB30BE40BF50B94
:10213000661F771F881F991F1A9469F7609570951D
:10214000809590959B01AC01BD01CF010895AA1B1C
:10215000BB1B51E107C0AA1FBB1FA617B70710F092
:10216000A61BB70B881F991F5A95A9F780959095C4
:10217000BC01CD010895FB01DC0102C001900D926C
:1021800041505040D8F70895FB019F01E894423038
:10219000C4F04532B4F44A3029F497FB1EF490950C
:1021A00081959F4F642F77270E94A710805D8A3307
:1021B0000CF0895D8193CB010097A1F716F45DE2E5
:1021C00051931082C9010C947D13FA01CF93FF93B0
:1021D000EF93223044F1253234F5C22FE894CA300F
:1021E00049F497FB3EF490958095709561957F4FEB
:1021F0008F4F9F4F2C2F332744275527FF93EF9363
:102200000E948510EF91FF91605D6A330CF0695D6B
:102210006193B901CA01605070408040904051F70D
:1022200016F4CDE2C19310828F919F91CF910C94BF
:102230007D13FA01CF93FF93EF932230CCF0253238
:10224000BCF4C22F2C2F332744275527FF93EF933D
:102250000E948510EF91FF91605D6A330CF0695D1B
:102260006193B901CA01605070408040904051F7BD
:1022700010828F919F91CF910C947D13DF93CF9318
:10228000CDB7DEB7FE01369661917191A091860DB2
:10229000B091870D13968C911397886013968C9349
:1022A0008091860D9091870DAF010E946111E091A0
:1022B000860DF091870D2381277F2383CF91DF91B6
:1022C00008952F923F924F925F926F927F928F92DA
:1022D0009F92AF92BF92CF92DF92EF92FF920F93B5
:1022E0001F93DF93CF93CDB7DEB72B970FB6F8943C
:1022F000DEBF0FBECDBF3C012B015A01FC0117828E
:102300001682838181FD03C06FEF7FEFC6C19AE023
:10231000892E1E010894211C311CF3012381F20136
:1023200023FD859123FF81912F01882309F4B2C1F8
:10233000853239F423FD859123FF81912F01853268
:1023400029F490E0B3010E948D13E7CF982FFF246A
:10235000EE249924FFE1FF15D0F09B3269F09C3206
:1023600028F4903259F0933291F40EC09D3249F026
:10237000903369F441E024C052E0F52A84E0F82A61
:1023800028C098E0F92A25C0E0E1FE2A22C0F7FC27
:1023900029C0892F80538A3070F4F6FE05C0989CBE
:1023A000902C1124980E15C0E89CE02C1124E80E06
:1023B000F0E2FF2A0EC09E3229F4F6FC6BC140E425
:1023C000F42A07C09C3619F450E8F52A02C0983662
:1023D00049F4F20123FD959123FF91912F01992357
:1023E00009F0B8CF892F8554833018F0805283309C
:1023F00038F444E050E0A40EB51E5FE359830FC0EB
:10240000933631F0933779F0933509F056C020C0F8
:10241000F5018081898342E050E0A40EB51E610180
:1024200001E010E012C0F501C080D180F6FC03C0CD
:102430006FEF7FEF02C0692D70E042E050E0A40E24
:10244000B51EC6010E9472138C015FE7F52214C00D
:10245000F501C080D180F6FC03C06FEF7FEF02C0B2
:10246000692D70E042E050E0A40EB51EC6010E9446
:1024700067138C0150E8F52AF3FE07C01AC080E20A
:1024800090E0B3010E948D13EA948E2D90E008171E
:102490001907A8F30EC0F601F7FC8591F7FE8191AC
:1024A0006F0190E0B3010E948D13E110EA94015096
:1024B00010400115110579F7EAC0943611F09936EC
:1024C00069F5F7FE08C0F501208131814281538111
:1024D00084E090E00AC0F501808191819C0144274D
:1024E00037FD4095542F82E090E0A80EB91E9FE67C
:1024F000F92257FF09C050954095309521953F4FDF
:102500004F4F5F4FE0E8FE2ACA01B901A1012AE05E
:1025100030E00E94B913D82ED21840C0953729F464
:102520001F2D1F7E2AE030E01DC01F2D197F9F3612
:1025300061F0903720F4983509F0ACC00FC09037A7
:1025400039F0983709F0A6C004C028E030E00AC08E
:10255000106114FD146020E130E004C014FD166029
:1025600020E132E017FF08C0F501608171818281AE
:10257000938144E050E008C0F50180819181BC0165
:1025800080E090E042E050E0A40EB51EA1010E9460
:10259000B913D82ED2188FE7F82EF122F6FE0BC011
:1025A0005EEFF522D91438F4F4FE07C0F2FC05C042
:1025B0008FEEF82202C01D2D01C0192DF4FE0DC0B2
:1025C000FE01ED0DF11D8081803319F499EEF922A1
:1025D00008C01F5FF2FE05C003C08F2D867809F08A
:1025E0001F5F0F2DF3FC14C0F0FE0FC01E1510F07E
:1025F0009D2C0BC09D2C9E0C911A1E2D06C080E2B6
:1026000090E0B3010E948D131F5F1E15C0F304C03C
:102610001E1510F4E11A01C0EE2404FF0FC080E380
:1026200090E0B3010E948D1302FF1DC001FD03C0A5
:1026300088E790E00EC088E590E00BC0802F867898
:1026400091F001FF02C08BE201C080E2F7FC8DE255
:1026500090E0B3010E948D1306C080E390E0B301C7
:102660000E948D139A94D914C0F3DA94F101ED0D00
:10267000F11D808190E0B3010E948D13DD20A9F748
:1026800006C080E290E0B3010E948D13EA94EE2030
:10269000C1F743CEF30166817781CB012B960FB64C
:1026A000F894DEBF0FBECDBFCF91DF911F910F9188
:1026B000FF90EF90DF90CF90BF90AF909F908F9062
:1026C0007F906F905F904F903F902F900895FC0106
:1026D0000590615070400110D8F7809590958E0F4D
:1026E0009F1F0895FC016150704001900110D8F7C0
:1026F000809590958E0F9F1F0895DC01FC01672F38
:1027000071917723E1F7329704C07C916D937083C8
:102710006291AE17BF07C8F308950F931F93CF932D
:10272000DF938C01EB018B8181FF1BC082FF0DC009
:102730002E813F818C819D812817390764F4E881BF
:10274000F9810193F983E88306C0E885F985802F34
:102750001995892B31F48E819F8101969F838E83F9
:1027600002C00FEF1FEFC801DF91CF911F910F91B2
:102770000895FA01AA27283051F1203181F1E89417
:102780006F936E7F6E5F7F4F8F4F9F4FAF4FB1E064
:102790003ED0B4E03CD0670F781F891F9A1FA11D5F
:1027A000680F791F8A1F911DA11D6A0F711D811D60
:1027B000911DA11D20D009F468943F912AE0269F25
:1027C00011243019305D3193DEF6CF010895462F84
:1027D0004770405D4193B3E00FD0C9F7F6CF462F65
:1027E0004F70405D4A3318F0495D31FD40524193CE
:1027F00002D0A9F7EACFB4E0A6959795879577958B
:102800006795BA95C9F700976105710508959B0111
:10281000AC010A2E06945795479537952795BA959A
:10282000C9F7620F731F841F951FA01D0895F894A8
:02283000FFCFD8
:0E28320000000002000000003704000000005B
:00000001FF
